:020000040000FA
:0600000082EF15F0120072
:020006001200E6
:08000800F2A402D0CAEF0DF0D2
:100010009EA202D08BEF0EF01200D08EF28E120054
:1000200009000E2C00007D0D000007000000032CCD
:100030000000680D00000B000000022C0000850D80
:10004000000001000000F52B00005B0D00000D001A
:100050000000CD2B0000000F000028000000BB2B8B
:100060000000490D000012000000A02B0000000D50
:1000700000001B000000882B00001B0D0000180072
:0E0080000000722B0000330D0000160000007F
:02008E00D9CFC8
:10009000E6FFE1CFD9FFE652FD0EDBCF16F0FE0EF4
:1000A000DBCF17F017C016F0176A640E1702F3CFF4
:1000B00017F01602F3CF16F0F4501726FD0EDBCF23
:1000C00018F0FE0EDBCF19F0040ED890193218325A
:1000D000E804FBE10A0E1902F3CF19F01802F3CF7E
:1000E00018F0F450192616501810146E17501910E5
:1000F000156E0F0EE76EFD0EDBCF1AF0FE0EDBCF96
:100100001BF0E7501A161B6A14501A10DF6EDF50EE
:1001100000D0E552E552E7CFD9FF1200D9CFE6FF74
:10012000E1CFD9FFFE0EDB50F00BE83A060DFE0ED4
:10013000DBCFE7FFF350E75EFE0EE7CFDBFFDB50E0
:10014000146E156A14C0F3FF15C0F4FF00D0E55219
:10015000E7CFD9FF1200D9CFE6FFE1CFD9FF020EDA
:10016000E1260A0E146E14C00EF0FE0EDBCF09F06D
:1001700090EC15F00950DF6E0A0E146E14C00EF0EC
:10018000FE0EDBCF09F090EC15F0010E05C0DBFF91
:10019000DB500F0B146E0F0EDF14100DF350141004
:1001A000146E020EE15C03E200D0E16AE552E16EFA
:1001B0001450E552E7CFD9FF1200D9CFE6FFE1CFC7
:1001C000D9FF0E0EE126FD0EDBCF14F0FE0EDBCFC5
:1001D00015F00A0E0D6E0E6A14C008F015C009F075
:1001E0004CEC15F004C014F005C015F00A0E14C054
:1001F000DBFF0B0E15C0DBFF0C0EDB6A0D0EDB6A9E
:100200000A0EDB50E76E040EE7CFDBFFFD0EDBCFFF
:1002100014F0FE0EDBCF15F00A0E0D6E0E6A14C040
:1002200008F015C009F04CEC15F008C014F009C036
:1002300015F0060E14C0DBFF070E15C0DBFF080E1D
:10024000DB6A090EDB6A060EDBCF06F0070EDBCF9A
:1002500007F0080EDBCF08F0090EDBCF09F00A0E1D
:100260000B6E0C6A0D6A0E6A97EC14F00A0E02C04F
:10027000DBFF0B0E03C0DBFF0C0E04C0DBFF0D0E1B
:1002800005C0DBFF0A0EDB50E76E030EE7CFDBFF96
:10029000060EDBCF06F0070EDBCF07F0080EDBCF34
:1002A00008F0090EDBCF09F00A0E0B6E0C6A0D6A1E
:1002B0000E6A97EC14F0060E06C0DBFF070E07C0AF
:1002C000DBFF080E08C0DBFF090E09C0DBFF060ECE
:1002D000DBCF06F0070EDBCF07F0080EDBCF08F010
:1002E000090EDBCF09F00A0E0B6E0C6A0D6A0E6A5E
:1002F00097EC14F00A0E02C0DBFF0B0E03C0DBFF0D
:100300000C0E04C0DBFF0D0E05C0DBFF0A0EDB5038
:10031000E76E020EE7CFDBFF060EDBCF06F0070E1F
:10032000DBCF07F0080EDBCF08F0090EDBCF09F0BA
:100330000A0E0B6E0C6A0D6A0E6A97EC14F0060E2C
:1003400006C0DBFF070E07C0DBFF080E08C0DBFF9F
:10035000090E09C0DBFF060EDBCF06F0070EDBCF70
:1003600007F0080EDBCF08F0090EDBCF09F00A0E0C
:100370000B6E0C6A0D6A0E6A97EC14F00A0E02C03E
:10038000DBFF0B0E03C0DBFF0C0E04C0DBFF0D0E0A
:1003900005C0DBFF0A0EDB50E76E010EE7CFDBFF87
:1003A000060EDBCF06F0070EDBCF07F0080EDBCF23
:1003B00008F0090EDBCF09F00A0E0B6E0C6A0D6A0D
:1003C0000E6A97EC14F0060E06C0DBFF070E07C09E
:1003D000DBFF080E08C0DBFF090E09C0DBFF060EBD
:1003E000DB50DF6E050EDB6AF36EDBCFF4FFF350FC
:1003F000F45C21E2D9CF14F0DACF15F0050EDB5012
:100400000F011424E96E000E1520EA6EEF50E66E1F
:10041000050EDB50E76EFB0EDBCFE9FFFC0EDBCFFA
:10042000EAFFE750E926000EEA22E552E750EF6EB8
:10043000050EDB2AD9D70E0EE15C02E2E16AE55235
:10044000E16EE552E7CFD9FF1200D9CFE6FFE1CF49
:10045000D9FF080EE1260A0E146E14C00EF0FE0E2F
:10046000DBCF09F090EC15F00550E66ED950060F81
:10047000E96EDACFEAFFE552E750EE6EED6A060E5E
:10048000DB50E76E020EE7CFDBFF0A0E146E14C0DE
:100490000EF0FE0EDBCF09F090EC15F00950E66E81
:1004A000D950040FE96EDACFEAFFE552E750EE6E5D
:1004B000ED6A040EDBCF14F0050EDBCF15F00A0E4B
:1004C0000D6E0E6A14C008F015C009F04CEC15F062
:1004D00004C014F005C015F0060E14C0DBFF070EB3
:1004E00015C0DBFF060EDB50E76E010EE7CFDBFF2A
:1004F0000A0E146E156A040EDBCF08F0050EDBCF72
:1005000009F014C00DF015C00EF04CEC15F0040EFF
:1005100008C0DBFF050E09C0DBFF040EDB50DF6EF9
:10052000030EDB6AF36EDBCFF4FFF350F45C21E2E1
:10053000D9CF14F0DACF15F0030EDB500F011424DD
:10054000E96E000E1520EA6EEF50E66E030EDB50EA
:10055000E76EFC0EDBCFE9FFFD0EDBCFEAFFE750D5
:10056000E926000EEA22E552E750EF6E030EDB2A81
:10057000D9D7080EE15C02E2E16AE552E16EE5528C
:10058000E7CFD9FF1200D9CFE6FFE1CFD9FF130E95
:10059000E126FB0EDBCF06F0FC0EDBCF07F0FD0EF5
:1005A000DBCF08F0FE0EDBCF09F00A0E0B6E0C6AF3
:1005B0000D6A0E6A97EC14F00F0E02C0DBFF100EEE
:1005C00003C0DBFF110E04C0DBFF120E05C0DBFF12
:1005D0000F0EDB50E76E090EE7CFDBFFFB0EDBCF24
:1005E00006F0FC0EDBCF07F0FD0EDBCF08F0FE0EB1
:1005F000DBCF09F00A0E0B6E0C6A0D6A0E6A97ECDF
:1006000014F00B0E06C0DBFF0C0E07C0DBFF0D0E57
:1006100008C0DBFF0E0E09C0DBFF0B0EDBCF06F0C0
:100620000C0EDBCF07F00D0EDBCF08F00E0EDBCF8C
:1006300009F00A0E0B6E0C6A0D6A0E6A97EC14F044
:100640000F0E02C0DBFF100E03C0DBFF110E04C053
:10065000DBFF120E05C0DBFF0F0EDB50E76E080E4E
:10066000E7CFDBFF0B0EDBCF06F00C0EDBCF07F086
:100670000D0EDBCF08F00E0EDBCF09F00A0E0B6E6D
:100680000C6A0D6A0E6A97EC14F00B0E06C0DBFFC5
:100690000C0E07C0DBFF0D0E08C0DBFF0E0E09C0FD
:1006A000DBFF0B0EDBCF06F00C0EDBCF07F00D0EE1
:1006B000DBCF08F00E0EDBCF09F00A0E0B6E0C6AD2
:1006C0000D6A0E6A97EC14F00F0E02C0DBFF100EDD
:1006D00003C0DBFF110E04C0DBFF120E05C0DBFF01
:1006E0000F0EDB50E76E070EE7CFDBFF0B0EDBCF05
:1006F00006F00C0EDBCF07F00D0EDBCF08F00E0E70
:10070000DBCF09F00A0E0B6E0C6A0D6A0E6A97ECCD
:1007100014F00B0E06C0DBFF0C0E07C0DBFF0D0E46
:1007200008C0DBFF0E0E09C0DBFF0B0EDBCF06F0AF
:100730000C0EDBCF07F00D0EDBCF08F00E0EDBCF7B
:1007400009F00A0E0B6E0C6A0D6A0E6A97EC14F033
:100750000F0E02C0DBFF100E03C0DBFF110E04C042
:10076000DBFF120E05C0DBFF0F0EDB50E76E060E3F
:10077000E7CFDBFF0B0EDBCF06F00C0EDBCF07F075
:100780000D0EDBCF08F00E0EDBCF09F00A0E0B6E5C
:100790000C6A0D6A0E6A97EC14F00B0E06C0DBFFB4
:1007A0000C0E07C0DBFF0D0E08C0DBFF0E0E09C0EC
:1007B000DBFF0B0EDBCF06F00C0EDBCF07F00D0ED0
:1007C000DBCF08F00E0EDBCF09F00A0E0B6E0C6AC1
:1007D0000D6A0E6A97EC14F00F0E02C0DBFF100ECC
:1007E00003C0DBFF110E04C0DBFF120E05C0DBFFF0
:1007F0000F0EDB50E76E050EE7CFDBFF0B0EDBCFF6
:1008000006F00C0EDBCF07F00D0EDBCF08F00E0E5E
:10081000DBCF09F00A0E0B6E0C6A0D6A0E6A97ECBC
:1008200014F00B0E06C0DBFF0C0E07C0DBFF0D0E35
:1008300008C0DBFF0E0E09C0DBFF0B0EDBCF06F09E
:100840000C0EDBCF07F00D0EDBCF08F00E0EDBCF6A
:1008500009F00A0E0B6E0C6A0D6A0E6A97EC14F022
:100860000F0E02C0DBFF100E03C0DBFF110E04C031
:10087000DBFF120E05C0DBFF0F0EDB50E76E040E30
:10088000E7CFDBFF0B0EDBCF06F00C0EDBCF07F064
:100890000D0EDBCF08F00E0EDBCF09F00A0E0B6E4B
:1008A0000C6A0D6A0E6A97EC14F00B0E06C0DBFFA3
:1008B0000C0E07C0DBFF0D0E08C0DBFF0E0E09C0DB
:1008C000DBFF0B0EDBCF06F00C0EDBCF07F00D0EBF
:1008D000DBCF08F00E0EDBCF09F00A0E0B6E0C6AB0
:1008E0000D6A0E6A97EC14F00F0E02C0DBFF100EBB
:1008F00003C0DBFF110E04C0DBFF120E05C0DBFFDF
:100900000F0EDB50E76E030EE7CFDBFF0B0EDBCFE6
:1009100006F00C0EDBCF07F00D0EDBCF08F00E0E4D
:10092000DBCF09F00A0E0B6E0C6A0D6A0E6A97ECAB
:1009300014F00B0E06C0DBFF0C0E07C0DBFF0D0E24
:1009400008C0DBFF0E0E09C0DBFF0B0EDBCF06F08D
:100950000C0EDBCF07F00D0EDBCF08F00E0EDBCF59
:1009600009F00A0E0B6E0C6A0D6A0E6A97EC14F011
:100970000F0E02C0DBFF100E03C0DBFF110E04C020
:10098000DBFF120E05C0DBFF0F0EDB50E76E020E21
:10099000E7CFDBFF0B0EDBCF06F00C0EDBCF07F053
:1009A0000D0EDBCF08F00E0EDBCF09F00A0E0B6E3A
:1009B0000C6A0D6A0E6A97EC14F00B0E06C0DBFF92
:1009C0000C0E07C0DBFF0D0E08C0DBFF0E0E09C0CA
:1009D000DBFF0B0EDBCF06F00C0EDBCF07F00D0EAE
:1009E000DBCF08F00E0EDBCF09F00A0E0B6E0C6A9F
:1009F0000D6A0E6A97EC14F00F0E02C0DBFF100EAA
:100A000003C0DBFF110E04C0DBFF120E05C0DBFFCD
:100A10000F0EDB50E76E010EE7CFDBFF0B0EDBCFD7
:100A200006F00C0EDBCF07F00D0EDBCF08F00E0E3C
:100A3000DBCF09F00A0E0B6E0C6A0D6A0E6A97EC9A
:100A400014F00B0E06C0DBFF0C0E07C0DBFF0D0E13
:100A500008C0DBFF0E0E09C0DBFF0B0EDB50DF6EA4
:100A60000A0EDB6AF36EDBCFF4FFF350F45C22E294
:100A7000D9CF14F0DACF15F00A0EDB500F01142491
:100A8000E96E000E1520EA6EEF503009E66E0A0E90
:100A9000DB50E76EF90EDBCFE9FFFA0EDBCFEAFFA2
:100AA000E750E926000EEA22E552E750EF6E0A0E03
:100AB000DB2AD8D7130EE15C02E2E16AE552E16E6F
:100AC000E552E7CFD9FF1200D9CFE6FFE1CFD9FF3A
:100AD000FE0EDB50F00BE83A060DFE0EDBCFE7FF13
:100AE000F350E75EFE0EE7CFDBFFDB5000D0E552B0
:100AF000E7CFD9FF1200D9CFE6FFE1CFD9FF0A0E29
:100B0000146E14C00EF0FE0EDBCF09F090EC15F061
:100B10000950060DFE0EDBCFE7FFF350E726FE0E71
:100B2000E7CFDBFFDB50146E156A14C0F3FF15C06E
:100B3000F4FF00D0E552E7CFD9FF1200D9CFE6FF8E
:100B4000E1CFD9FF060EE126F36EFC0EDBCFF4FFFA
:100B5000F350F45C71E2020EDB6A030EDB6A040EF2
:100B6000DB6A050EDB6ADF6AFC0EDB50DF5C58E2F5
:100B7000FC0EDBCFE6FFDF28E552E75CE76E010EF7
:100B8000E7CFDBFFF36E040EF3CFDBFF050EDB6A6E
:100B9000010EDB50000814E20A0E086E096A040E0A
:100BA000DBCF0DF0050EDBCF0EF0DAEC14F0040E07
:100BB00006C0DBFF050E07C0DBFF010EDB06E8D732
:100BC000020EDBCF16F0030EDBCF17F0DF50E76E1F
:100BD000FD0EDBCFE9FFFE0EDBCFEAFFE750E92693
:100BE000000EEA22EF500F0B186E196A040EDBCFCD
:100BF00008F0050EDBCF09F018C00DF019C00EF09B
:100C0000DAEC14F016500624146E17500720156EF7
:100C1000020E14C0DBFF030E15C0DBFFDF2AA4D7D2
:100C2000020EDBCF14F0030EDBCF15F014C0F3FF80
:100C300015C0F4FF04D003D0F36AF46A00D0060EA6
:100C4000E15C02E2E16AE552E16EE552E7CFD9FFED
:020C5000120090
:0E0C5200D9CFE6FFE1CFD9FFFE0EDB04E96E3D
:100C6000EA6AD890E936EA36010EE9260F0EEA2242
:100C7000EECF14F0EFCF15F014C0F3FF15C0F4FF62
:100C800000D0E552E7CFD9FF1200D9CFE6FFE1CF80
:100C9000D9FFFE0EDBCFE6FFE66A47EC00F0E55237
:100CA000E552FF0FE96EEA6AD890E936EA360F0E90
:100CB000E9260F0EEA22EECF14F0EFCF15F014C0A4
:100CC000F3FF15C0F4FF00D0E552E7CFD9FF1200C3
:100CD000D9CFE6FFE1CFD9FF49EC12F0D00EE66E96
:100CE0008DEC12F0E552E66A8DEC12F0E55249EC1B
:100CF00012F0D10EE66E8DEC12F0E552010EE66EAA
:100D0000D4EC12F0E552E66EFD0EDBCFE9FFFE0EED
:100D1000DBCFEAFFE552E750EF6E010EE66ED4EC52
:100D200012F0E552E66E010EE76EFD0EDBCFE9FF35
:100D3000FE0EDBCFEAFFE750E926000EEA22E5527D
:100D4000E750EF6E010EE66ED4EC12F0E552E66E5F
:100D5000020EE76EFD0EDBCFE9FFFE0EDBCFEAFFF2
:100D6000E750E926000EEA22E552E750EF6E010E49
:100D7000E66ED4EC12F0E552E66E030EE76EFD0E61
:100D8000DBCFE9FFFE0EDBCFEAFFE750E926000EDE
:100D9000EA22E552E750EF6E010EE66ED4EC12F057
:100DA000E552E66E040EE76EFD0EDBCFE9FFFE0EA8
:100DB000DBCFEAFFE750E926000EEA22E552E750D2
:100DC000EF6E010EE66ED4EC12F0E552E66E050E03
:100DD000E76EFD0EDBCFE9FFFE0EDBCFEAFFE7504B
:100DE000E926000EEA22E552E750EF6EE66AD4ECFF
:100DF00012F0E552E66E060EE76EFD0EDBCFE9FF60
:100E0000FE0EDBCFEAFFE750E926000EEA22E552AC
:100E1000E750EF6E5FEC12F0E552E7CFD9FF12001A
:100E2000D9CFE6FFE1CFD9FF49EC12F0D00EE66E44
:100E30008DEC12F0E552E66A8DEC12F0E552FD0EF3
:100E4000DBCFE9FFFE0EDBCFEAFFEF50E66E8DEC65
:100E500012F0E552010EE76EFD0EDBCFE9FFFE0E4C
:100E6000DBCFEAFFE750E926000EEA22EF50E66EFC
:100E70008DEC12F0E552020EE76EFD0EDBCFE9FFBE
:100E8000FE0EDBCFEAFFE750E926000EEA22EF5024
:100E9000E66E8DEC12F0E552030EE76EFD0EDBCF31
:100EA000E9FFFE0EDBCFEAFFE750E926000EEA225B
:100EB000EF50E66E8DEC12F0E552040EE76EFD0E7B
:100EC000DBCFE9FFFE0EDBCFEAFFE750E926000E9D
:100ED000EA22EF50E66E8DEC12F0E552050EE76E59
:100EE000FD0EDBCFE9FFFE0EDBCFEAFFE750E92680
:100EF000000EEA22EF50E66E8DEC12F0E552060E7F
:100F0000E76EFD0EDBCFE9FFFE0EDBCFEAFFE75019
:100F1000E926000EEA22EF50E66E8DEC12F0E55263
:100F20005FEC12F0E552E7CFD9FF1200D9CFE6FF10
:100F3000E1CFD9FFFD0EDB041DE1FE0EDB504009C1
:100F4000E76EFE0EE7CFDBFFFC0EDB0408E1FE0ED2
:100F5000DB502009E76EFE0EE7CFDBFF0AD0FC0E68
:100F6000DB5007E1FE0EDB50DF0BE76EFE0EE7CF36
:100F7000DBFF0AD0FD0EDB5007E1FE0EDB50BF0B9E
:100F8000E76EFE0EE7CFDBFFFE0EDB5000D0E55232
:100F9000E7CFD9FF1200D9CFE6FFE1CFD9FFFD0E91
:100FA000DBCFE9FFFE0EDBCFEAFFEE52EF50E66E3D
:100FB000FB0EDBCFE9FFFC0EDBCFEAFFEE52E55282
:100FC000E750EF6EFD0EDBCFE9FFFE0EDBCFEAFF51
:100FD000EF50E66EFB0EDBCFE9FFFC0EDBCFEAFF46
:100FE000E552E750EF6EFD0EDBCFE9FFFE0EDBCFE3
:100FF000EAFF020EE926000EEA22EFCF14F00C0EF3
:10100000145C42E3FD0EDBCFE9FFFE0EDBCFEAFF0F
:10101000020EE926000EEA22EF50F40FE66EFB0EF8
:10102000DBCFE9FFFC0EDBCFEAFF020EE926000E64
:10103000EA22E552E750EF6EFB0EDBCFE9FFFC0E34
:10104000DBCFEAFF070EE926000EEA22010EEF6E63
:101050000C0E146EFD0EDBCFE9FFFE0EDBCFEAFFB8
:10106000020EE926000EEA22EF50145C0CE1FB0EA2
:10107000DBCFE9FFFC0EDBCFEAFF020EE926000E14
:10108000EA220C0EEF6E4BD0FD0EDBCFE9FFFE0E19
:10109000DBCFEAFF020EE926000EEA22EFCF14F0C2
:1010A0000C0E145C3CE2FD0EDBCFE9FFFE0EDBCF45
:1010B000EAFF020EE926000EEA22EF50E66EFB0E72
:1010C000DBCFE9FFFC0EDBCFEAFF020EE926000EC4
:1010D000EA22E552E750EF6EFB0EDBCFE9FFFC0E94
:1010E000DBCFEAFF070EE926000EEA22EF6AFD0ECB
:1010F000DBCFE9FFFE0EDBCFEAFF020EE926000E92
:10110000EA22EF500CE1FB0EDBCFE9FFFC0EDBCF58
:10111000EAFF020EE926000EEA220C0EEF6EE552FF
:10112000E7CFD9FF1200D9CFE6FFE1CFD9FFFD0EFF
:10113000DBCFE9FFFE0EDBCFEAFFEE52EF50E66EAB
:10114000FB0EDBCFE9FFFC0EDBCFEAFFEE52E552F0
:10115000E750EF6EFD0EDBCFE9FFFE0EDBCFEAFFBF
:10116000EF50E66EFB0EDBCFE9FFFC0EDBCFEAFFB4
:10117000E552E750EF6EFD0EDBCFE9FFFE0EDBCF51
:10118000EAFF070EE926000EEA22EF0436E1FD0E23
:10119000DBCFE9FFFE0EDBCFEAFF020EE926000EF1
:1011A000EA22EF500C0FE66EFB0EDBCFE9FFFC0EE0
:1011B000DBCFEAFF020EE926000EEA22E552E750F5
:1011C000EF6E0C0E146EFD0EDBCFE9FFFE0EDBCFD3
:1011D000EAFF020EE926000EEA22EF50145C0CE151
:1011E000FB0EDBCFE9FFFC0EDBCFEAFF020EE926A8
:1011F000000EEA220C0EEF6E3FD0FD0EDBCFE9FFB2
:10120000FE0EDBCFEAFF070EE926000EEA22EF50C2
:1012100033E1FD0EDBCFE9FFFE0EDBCFEAFF020E6E
:10122000E926000EEA22EF50E66EFB0EDBCFE9FF67
:10123000FC0EDBCFEAFF020EE926000EEA22E552A1
:10124000E750EF6E0C0E146EFD0EDBCFE9FFFE0EC5
:10125000DBCFEAFF020EE926000EEA22EF50145C13
:101260000BE1FB0EDBCFE9FFFC0EDBCFEAFF020E4A
:10127000E926000EEA22EF6AE552E7CFD9FF120015
:10128000D9CFE6FFE1CFD9FFE652DF6AFD0EDB04DE
:101290000DE1FE0EDB500C0FDF6E0C0E146EFE0E19
:1012A000DB50145C02E10C0EDF6E16D0FD0EDB503D
:1012B0000BE1FE0EDB50DF6E0C0E146EFE0EDB50EB
:1012C000145C01E1DF6A08D0AA0E146EFD0EDB503B
:1012D000145C02E1AA0EDF6EDF5000D0E552E55249
:1012E000E7CFD9FF1200D9CFE6FFE1CFD9FF49EC14
:1012F00012F0D00EE66E8DEC12F0E552E66A8DEC3F
:1013000012F0E552050EE76EFD0EDBCFE9FFFE0E93
:10131000DBCFEAFFE750E926000EEA22EF500F0B81
:10132000146E040EE76EFD0EDBCFE9FFFE0EDBCF81
:10133000EAFFE750E926000EEA22EF500F0B100DEE
:10134000F3501410E66E8DEC12F0E552030EE76ECA
:10135000FD0EDBCFE9FFFE0EDBCFEAFFE750E9260B
:10136000000EEA22EF500F0B146E020EE76EFD0E18
:10137000DBCFE9FFFE0EDBCFEAFFE750E926000EE8
:10138000EA22EF500F0B100DF3501410E66E8DECA7
:1013900012F0E552010EE76EFD0EDBCFE9FFFE0E07
:1013A000DBCFEAFFE750E926000EEA22EF500F0BF1
:1013B000146EFD0EDBCFE9FFFE0EDBCFEAFFEF5030
:1013C0000F0B100DF3501410E66E8DEC12F0E55279
:1013D0005FEC12F0E552E7CFD9FF1200D9CFE6FF5C
:1013E000E1CFD9FF49EC12F0D00EE66E8DEC12F091
:1013F000E552040EE66E8DEC12F0E552010EE76E3A
:10140000FD0EDBCFE9FFFE0EDBCFEAFFE750E9265A
:10141000000EEA22EF500F0B146EFD0EDBCFE9FF3A
:10142000FE0EDBCFEAFFEF500F0B100DF350141040
:10143000E66E8DEC12F0E552030EE76EFD0EDBCF8B
:10144000E9FFFE0EDBCFEAFFE750E926000EEA22B5
:10145000EF500F0B146E020EE76EFD0EDBCFE9FFAF
:10146000FE0EDBCFEAFFE750E926000EEA22EF503E
:101470000F0B100DF3501410E66E8DEC12F0E552C8
:10148000050EE76EFD0EDBCFE9FFFE0EDBCFEAFFB8
:10149000E750E926000EEA22EF500F0B146E040EFF
:1014A000E76EFD0EDBCFE9FFFE0EDBCFEAFFE75074
:1014B000E926000EEA22EF500F0B100DF350141026
:1014C000E66E8DEC12F0E5525FEC12F0E552E7CFDC
:1014D000D9FF1200D9CFE6FFE1CFD9FF49EC12F0D6
:1014E000D00EE66E8DEC12F0E552030EE66E8DEC3A
:1014F00012F0E552FE0EDBCFE6FF8DEC12F0E55266
:101500005FEC12F0E552E7CFD9FF1200D9CFE6FF2A
:10151000E1CFD9FFE652E66AD00EE66E25EC13F075
:10152000E552E552DF6E7F0EDF14DF6EDFCFE6FFA0
:10153000E66AD00EE66E47EC13F0E552E552E5524E
:10154000900EE66E070EE66ED00EE66E47EC13F0D8
:10155000E552E552E552E552E552E7CFD9FF1200D8
:101560002F0EE66E0F0EE66E68EC06F0E552E552C1
:101570000F0127510F012F5D05E02FCF27FF0F012E
:06158000010E006F1200D5
:0A158600D9CFE6FFE1CFD9FF050E33
:10159000E126FE0EDB50080802E2000E66D0FE0EC9
:1015A000DBCF11FDDF6A0D011151DF5C0AE2DF5074
:1015B000EA6A090FE96E0D0EEA2272CDEFFFDF2A0B
:1015C000F2D7010E176F0D0E186FDF6A0B0EDF5C7E
:1015D00048E2010EDB6AFE0EDB50F36E010EDBCF3C
:1015E000F4FFF350F45C15E2DF50EA6A680FE96E2D
:1015F0000D0EEA22EF50E66E010EDB50EA6A010F93
:10160000E96E0D0EEA22E552E750EF6E010EDB2A7D
:10161000E2D7020EDB6A640EF36E020EDBCFF4FF3C
:10162000F350F45C1CE22DD8030EF36EF3CFDBFF16
:10163000040EDB6A030EDBCF14F0DB06040EDBCFF7
:1016400015F001E2DB061450151006E0040EE66EFC
:1016500062EC15F0E552EED7020EDB2ADCD7DF2A6A
:10166000B5D70D01126B010E00D0146E050EE15CB2
:1016700002E2E16AE552E16E1450E552E7CFD9FF8C
:1016800012000D010051010A14E0010A01E03BD0F3
:101690001251EA6A1725E96E1851EA22EF50E66EF8
:1016A00041D9E5520D01122B1151125D01E3126B6C
:1016B0002AD01251EA6A1725E96E1851EA22EF5032
:1016C000E66E30D9E5520D01122B1151125D01E386
:1016D000126B132B000E14231551135D1651145960
:1016E00011E3136B146B010E171902E10D0E18199B
:1016F00005E1090E176F0D0E186F04D0010E176F5C
:101700000D0E186F00D01200D9CFE6FFE1CFD9FF40
:10171000E652DF6ADF6A0D011151DF5C16E2DF502D
:10172000E76EFD0EDBCFE9FFFE0EDBCFEAFFE750F1
:10173000E926000EEA22EF50E66E53D9E552000981
:1017400002E1000E41D0DF2AE6D7DF6A1151DF5CEB
:1017500038E2DF50E76EFD0EDBCFE9FFFE0EDBCF98
:10176000EAFFE750E926000EEA22EF50200809E1DF
:10177000DF50EA6A010FE96E0D0EEA2272CDEFFF2B
:101780001ED0DF50E76EFD0EDBCFE9FFFE0EDBCF94
:10179000EAFFE750E926000EEA22EF50D00FEA6A8E
:1017A000680FE96E0D0EEA22EF50E66EDF50EA6A2E
:1017B000010FE96E0D0EEA22E552E750EF6EDF2AC7
:1017C000C5D7126B010E00D0E552E552E7CFD9FF25
:1017D0001200D9CFE6FFE1CFD9FFE652DF6ADF6A18
:1017E0000D011151DF5C19E2DF50E76EFD0EDBCF1A
:1017F000E9FFFE0EDBCFEAFFE750E926000EEA2202
:10180000EF50E66EDF50EA6A010FE96E0D0EEA2234
:10181000E552E750EF6EDF2AE3D7126BE552E5524F
:10182000E7CFD9FF1200D9CFE6FFE1CFD9FFE652CB
:10183000DF6AFE0EDBCF14F00D011151D880145475
:1018400002E2000E2DD0FD0EDBCFE6FFCAD8E55236
:10185000000902E1000E24D0FD0EDB5020080AE151
:10186000FE0EDB50EA6A010FE96E0D0EEA2272CD20
:10187000EFFF14D0FD0EDB50D00FEA6A680FE96E5F
:101880000D0EEA22EF50E66EFE0EDB50EA6A010F03
:10189000E96E0D0EEA22E552E750EF6E010E00D020
:1018A000E552E552E7CFD9FF1200D9CFE6FFE1CFED
:1018B000D9FFFD0EDBCF15FDFE0EDBCF16FD010EB1
:1018C0000F0B0D0105E0D89016331533E806FBE148
:1018D0000D01136B146B010E006FE552E7CFD9FFBA
:1018E00012000D01010E176F0D0E186F006B120024
:1018F000D9CFE6FFE1CFD9FFE652DF6A0D011151E2
:10190000DF5C0AE2DF50EA6A010FE96E0D0EEA229F
:1019100072CDEFFFDF2AF2D7126BE552E552E7CF27
:10192000D9FF1200D9CFE6FFE1CFD9FF80808082B6
:10193000808480868088808AFE0EDB1C836E0D0189
:101940001251050A15E0010A11E0070A0DE0010A2B
:1019500009E0030A05E0010A01E00CD080900AD0FA
:10196000809208D0809406D0809604D0809802D0CF
:10197000809A00D0E552E7CFD9FF1200D9CFE6FF19
:10198000E1CFD9FF020EE126FE0EDB50DF6EFE0E28
:10199000DBCFE6FFFD0EDB50E552E724DF5C17E20C
:1019A000DF50EA6A010FE96E0D0EEA22010EEFCF59
:1019B000DBFFDB508009E66EDF50EA6A010FE96E5B
:1019C0000D0EEA22E552E750EF6EDF2AE0D7020E55
:1019D000E15C02E2E16AE552E16EE552E7CFD9FF50
:1019E0001200D9CFE6FFE1CFD9FFE652DF6AFE0E43
:1019F000DB50200803E1010EDF6E0ED0300EF36ED7
:101A0000FE0EDBCFF4FFF350F45C06E3FE0EDB507A
:101A1000390802E3010EDF6EDF5000D0E552E552D7
:101A2000E7CFD9FF1200D9CFE6FFE1CFD9FFE652C9
:101A3000DF6ADF6A0D011151DF5C16E2DF50E76EED
:101A4000FD0EDBCFE9FFFE0EDBCFEAFFE750E92614
:101A5000000EEA22EF50E66EC4DFE552000902E113
:101A6000000E4AD0DF2AE6D7FC0EDB50DF6EFB0EFD
:101A7000DBCFE6FFFC0EDB50E552E724DF5C38E20B
:101A8000DF50E76EFD0EDBCFE9FFFE0EDBCFEAFF96
:101A9000E750E926000EEA22EF50200809E1DF5066
:101AA000EA6A010FE96E0D0EEA2272CDEFFF1ED039
:101AB000DF50E76EFD0EDBCFE9FFFE0EDBCFEAFF66
:101AC000E750E926000EEA22EF50D00FEA6A680FCD
:101AD000E96E0D0EEA22EF50E66EDF50EA6A010F62
:101AE000E96E0D0EEA22E552E750EF6EDF2ABFD70E
:101AF0000D01126B010E00D0E552E552E7CFD9FF80
:101B00001200D9CFE6FFE1CFD9FFE652FD0EDBCFC1
:101B100015FDFE0EDBCF16FD010E0F0B0D0105E0CE
:101B2000D89016331533E806FBE10D01136B146BE7
:101B3000FC0EDB50196F1A6BDF6A1151DF5C1CE27F
:101B4000DF50146E156A1951141802E11A51151854
:101B500011E0DF50EA6A010FE96E0D0EEA22EF5044
:101B6000E66EDF50EA6A090FE96E0D0EEA22E552D1
:101B7000E750EF6EDF2AE1D7090E1925E96E0D0E49
:101B80001A21EA6EEF6A010E006FE552E552E7CFC7
:041B9000D9FF120067
:0C1B9400DACFE4FFE2CFDAFFE9CFE4FF94
:101BA000EACFE4FFF6CFE4FFF7CFE4FFF5CFE4FFA1
:101BB000F3CFE4FFF4CFE4FFFACFE4FF00EE00F050
:101BC000140EE80403E3EECFE4FFFBD700EE14F0BD
:101BD000080EE80403E3EECFE4FFFBD7E652F294ED
:101BE0000D01552B000E5623572B5823592B5A23E2
:101BF0004B514C1107E005D04CCDFAFF0D014B5174
:101C0000F96EFADF49CDE6FF4ACDE6FF14EC15F098
:101C1000E552E552E55200EE1BF0080EE80403E33E
:101C2000E5CFEDFFFBD700EE13F0140EE80403E35D
:101C3000E5CFEDFFFBD7E5CFFAFFE5CFF4FFE5CF2A
:101C4000F3FFE5CFF5FFE5CFF7FFE5CFF6FFE5CFF3
:101C5000EAFFE5CFE9FFE5CFDAFF1100DACFE4FFD5
:101C6000E2CFDAFFE9CFE4FFEACFE4FFF6CFE4FF0B
:101C7000F7CFE4FFF5CFE4FFF3CFE4FFF4CFE4FFC9
:101C8000FACFE4FF00EE00F0140EE80403E3EECF19
:101C9000E4FFFBD700EE14F0080EE80403E3EECFF8
:101CA000E4FFFBD7E6529E904DCDE6FF4ECDE6FF1A
:101CB000F8EC14F0E552E5520D014F51501107E0D8
:101CC00005D050CDFAFF0D014F51F96EFADFE55204
:101CD00000EE1BF0080EE80403E3E5CFEDFFFBD7B1
:101CE00000EE13F0140EE80403E3E5CFEDFFFBD79D
:101CF000E5CFFAFFE5CFF4FFE5CFF3FFE5CFF5FF42
:101D0000E5CFF7FFE5CFF6FFE5CFEAFFE5CFE9FF47
:101D1000E5CFDAFF1100DACFE4FFE2CFDAFFE9CF57
:101D2000E4FFEACFE4FFF6CFE4FFF7CFE4FFF5CF1F
:101D3000E4FFF3CFE4FFF4CFE4FFFACFE4FF00EEDB
:101D400000F0140EE80403E3EECFE4FFFBD700EE4F
:101D500014F0080EE80403E3EECFE4FFFBD7E652ED
:101D60009E9251CDBBFF0D015351541107E005D098
:101D700054CDFAFF0D015351F96EFADFE55200EE32
:101D80001BF0080EE80403E3E5CFEDFFFBD700EE00
:101D900013F0140EE80403E3E5CFEDFFFBD7E5CF26
:101DA000FAFFE5CFF4FFE5CFF3FFE5CFF5FFE5CF91
:101DB000F7FFE5CFF6FFE5CFEAFFE5CFE9FFE5CF97
:101DC000DAFF1100D9CFE6FFE1CFD9FF9F0EE66E13
:101DD00030EC15F0E552FD0EDBCF49FDFE0EDBCFFA
:101DE0004AFDFB0EDBCF4BFDFC0EDBCF4CFDFD0EA9
:101DF000DBCFE6FFFE0EDBCFE6FF14EC15F0E5527D
:101E0000E552E552E7CFD9FF1200D9CFE6FFE1CF87
:101E1000D9FF020EE126830EDF6EDE520C0EDD6E60
:101E2000CC6ACC9E070ECD6EFD0EDBCFE6FFFE0E1C
:101E3000DBCFE6FFF8EC14F0E552E5529F809D8081
:101E4000FD0EDBCF4DFDFE0EDBCF4EFDFB0EDBCFDF
:101E50004FFDFC0EDBCF50FD020EE15C02E2E16AB9
:101E6000E552E16EE552E7CFD9FF1200D9CFE6FF88
:101E7000E1CFD9FF0F0EBA6E9F829D82FE0EDB501E
:101E8000BB6EFE0EDB500D01516F526BFC0EDBCFB3
:101E900053FDFD0EDBCF54FDE552E7CFD9FF120015
:101EA000D9CFE6FFE1CFD9FFE652200EE66EE66A13
:101EB00043EC14F0E552E5520D01336FB6EC15F02A
:101EC0000D013351020A0EE0020A01E02DD0849286
:101ED0004ED9340EE66E0D0EE66E84EC0BF0E55234
:101EE000E55222D0DF6A070EDF5C15E2DF28E66EDE
:101EF000E66A43EC14F0E552E552E66EDF50EA6A1A
:101F0000340FE96E0D0EEA22E552E750EF6EB6ECA3
:101F100015F0DF2AE8D7340EE66E0D0EE66E84EC7F
:101F20000BF0E552E55200D0E552E552E7CFD9FF7C
:101F30001200D9CFE6FFE1CFD9FF020EE1260D0155
:101F40003351020A70E0030A24E0010A01E0ABD039
:101F5000020EE66E54EC11F0E552010819E107D9C2
:101F60007D0EE66E0D0EE66E10EC07F0E552E552C2
:101F7000010EE66E200EE66EE66A07EC14F0E552FE
:101F8000E552E552B6EC15F00D01010E336F848277
:101F90008AD0030EE66E54EC11F0E552010831E1EF
:101FA000010EDB6A070EF36E010EDBCFF4FFF35078
:101FB000F45C17E2010EDB50EA6A340FE96E0D0E95
:101FC000EA22EF50E66E010EDB28E66EE66A07ECC9
:101FD00014F0E552E552E552B6EC15F0010EDB2A9D
:101FE000E1D7020EE66E200EE66EE66A07EC14F00C
:101FF000E552E552E552B6EC15F00D01020E336FD5
:1020000052D03B0EE66E0D0EE66E68EC06F0E55221
:10201000E55253D8340EE66E0D0EE66E84EC0BF0EE
:10202000E552E55240D0020EE66E54EC11F0E55256
:10203000010819E19CD87D0EE66E0D0EE66E10ECDF
:1020400007F0E552E552010EE66E200EE66EE66AF6
:1020500007EC14F0E552E552E552B6EC15F00D012F
:10206000010E336F20D0040EE66E54EC11F0E552F1
:10207000010818E17CD8340EE66E0D0EE66E84EC95
:102080000BF0E552E552E66A200EE66EE66A07ECD2
:1020900014F0E552E552E552B6EC15F00D01336B44
:1020A000849201D000D0020EE15C02E2E16AE552C6
:1020B000E16EE552E7CFD9FF1200D9CFE6FFE1CFBD
:1020C000D9FF030EE126DF6A3ECDDFFFDF06DF0426
:1020D00004E1240E0D013D2714D0020EDF5C04E163
:1020E000480E0D013D270DD0030EDF5C04E1720E9A
:1020F0000D013D2706D0040EDF5C03E1960E0D01B5
:102100003D27990E0D013D5D08E1590E3C5D05E14D
:10211000590E3B5D02E1020E336F0F0E3B15300F7F
:10212000346FF00E3B15E8380F0B300F356F0F0E84
:102130003C15300F366FF00E3C15E8380F0B300FA2
:10214000376F0F0E3D15300F386FF00E3D15E83824
:102150000F0B300F396F200E3A6F030EE15C02E275
:10216000E16AE552E16EE552E7CFD9FF1200D9CF1F
:10217000E6FFE1CFD9FF020EE126DF6A070EDF5C42
:102180000AE2DF50EA6A340FE96E0D0EEA22200EF1
:10219000EF6EDF2AF3D7020EE15C02E2E16AE5525C
:0A21A000E16EE552E7CFD9FF12000F
:0621AA00D9CFE6FFE1CFF2
:1021B000D9FFE6528DD8DF6A080EDF5C09E2DF50F6
:1021C000EA6A1B0FE96E0D0EEA22EF6ADF2AF4D7E6
:1021D000E552E552E7CFD9FF1200D9CFE6FFE1CFB4
:1021E000D9FF9BD8FC0EDBCFE6FFFD0EDBCFE6FF71
:1021F000FE0EDBCFE6FFB9D8E552E552E552E552D7
:10220000E7CFD9FF1200D9CFE6FFE1CFD9FFE652E1
:10221000FC0EDB50DF6EFB0EDB50D880DF541AE380
:102220007CD8DFCFE6FF176ADF34FE0B1736166E59
:10223000FD0EDB501624146EFE0EDB501720156EBB
:1022400014C0E6FF15C0E6FF90D8E552E552E5520E
:10225000DF2AE1D7E552E552E7CFD9FF1200D9CF07
:10226000E6FFE1CFD9FFE652DF6A57D8DF6A080EF2
:10227000DF5C15E2DFCFE6FF156ADF34FE0B1536B3
:10228000146E230E14260D0E152214C0E6FF15C081
:10229000E6FF6BD8E552E552E552DF2AE8D7E55272
:1022A000E552E7CFD9FF1200D9CFE6FFE1CFD9FF42
:1022B000FE0EEA6ADB34FE0BEA36E96E230EE926EF
:1022C0000D0EEA22EF5000D0E552E7CFD9FF120001
:1022D000D9CFE6FFE1CFD9FFE652DF6A080EDF5C17
:1022E00017E2EA6ADF34FE0BEA36E96E230EE926CE
:1022F0000D0EEA22EF6AEA6ADF34FE0BEA36E96E77
:10230000230EE9260D0EEA22EE52EF6ADF2AE6D707
:10231000E552E552E7CFD9FF12008150010B0D01C4
:102320001B6F8150020B01E0010E1C6F8150040BEA
:1023300001E0010E1D6F8150080B01E0010E1E6FC0
:102340008150100B01E0010E1F6F8150200B01E046
:10235000010E206F8150400B01E0010E216F815072
:10236000800B01E0010E226F1200D9CFE6FFE1CF12
:10237000D9FFFD0EDBCFE9FFFE0EDBCFEAFFEF500A
:10238000010A3DE0010A01E074D0FC0EDB50EA6A6C
:102390001B0FE96E0D0EEA22EF50010B27E1FD0E37
:1023A000DBCFE9FFFE0EDBCFEAFFEE52EF2AFD0E98
:1023B000DBCFE9FFFE0EDBCFEAFFEECF14F0EFCF6D
:1023C00015F0020E0001155C10E3FD0EDBCFE9FFF6
:1023D000FE0EDBCFEAFF010EEF6EFD0EDBCFE9FF55
:1023E000FE0EDBCFEAFFEE52EF6A08D0FD0EDBCF28
:1023F000E9FFFE0EDBCFEAFFEE52EF6A3AD0FC0EA9
:10240000DB50EA6A1B0FE96E0D0EEA22EF50010B5A
:10241000010826E1FD0EDBCFE9FFFE0EDBCFEAFF70
:10242000EE52EF2AFD0EDBCFE9FFFE0EDBCFEAFF17
:10243000EECF14F0EFCF15F0020E0001155C0FE3A4
:10244000FD0EDBCFE9FFFE0EDBCFEAFFEF6AFD0EEC
:10245000DBCFE9FFFE0EDBCFEAFFEE52EF6A08D0DA
:10246000FD0EDBCFE9FFFE0EDBCFEAFFEE52EF6A97
:0A24700000D0E552E7CFD9FF1200BB
:06247A00C76AC78E590E6F
:10248000C86E280EC66EC56A9E96A19694869488DC
:1024900012009692969484848482050EE66EABECCC
:1024A00015F0E5528494050EE66EABEC15F0E5529E
:1024B0008492050EE66EABEC15F0E5521200969292
:1024C00096948494050EE66EABEC15F0E55284828A
:1024D000050EE66EABEC15F0E55284841200D9CF00
:1024E000E6FFE1CFD9FFE65296929684DF6ADF508D
:1024F0000A080EE3050EE66EABEC15F0E552848299
:10250000050EE66EABEC15F0E5528492DF2AEFD7AC
:10251000E552E552E7CFD9FF1200D9CFE6FFE1CF70
:10252000D9FFE65296929694DF6A080EDF5C25E2A8
:10253000FE0EDB50800B02E0010E01D0000EE8B071
:102540008484E8A08494030EE66EABEC15F0E552AB
:102550008482060EE66EABEC15F0E5528492020E14
:10256000E66EABEC15F0E552FE0EDBCFF3FFF39E0B
:10257000F346F3CFDBFFDF2AD8D79684020EE66E50
:10258000ABEC15F0E5528482060EE66EABEC15F06E
:10259000E5528492060EE66EABEC15F0E552E5527C
:1025A000E552E7CFD9FF1200D9CFE6FFE1CFD9FF3F
:1025B000020EE126DF6A969296949684010EDB6AFB
:1025C000080EF36E010EDBCFF4FFF350F45C17E25C
:1025D0008482060EE66EABEC15F0E552DF9EDF4618
:1025E0008450040B01E0010EDF10DF6E8492060EB2
:1025F000E66EABEC15F0E552010EDB2AE1D79694BE
:10260000FE0EDB0402E1849401D08484020EE66EA7
:10261000ABEC15F0E5528482060EE66EABEC15F0DD
:10262000E5528492060EE66EABEC15F0E552DF50F3
:10263000146E020EE15C03E200D0E16AE552E16E45
:102640001450E552E7CFD9FF1200D9CFE6FFE1CF12
:10265000D9FFE6521EDFFE0EDBCFE6FF5EDFE5525E
:10266000FD0EDBCFE6FF59DFE55213DFFE0EDB2860
:10267000E66E53DFE552E66A97DFE552DF6E1FDF55
:10268000DF5000D0E552E552E7CFD9FF1200D9CF95
:10269000E6FFE1CFD9FFFDDEFE0EDBCFE6FF3DDF3B
:1026A000E552FD0EDBCFE6FF38DFE552FC0EDBCF57
:1026B000E6FF33DFE55203DFE552E7CFD9FF120033
:1026C000D9CFE6FFE1CFD9FF040EE126DF6A030E82
:1026D000DB6ABBEC14F03DEC12F086EC0AF0070E5E
:1026E000E66EC3EC0AF0E552000EE66EE66A5F0E97
:1026F000E66EF00EE66EE2EC0EF0E552E552E552C3
:10270000E552820EE66E160EE66E1E0EE66E36EC94
:102710000FF0E552E552E55250EC0FF00DEC00F0F1
:102720000D01F40E555D010E565905E3A1EC15F0AF
:102730000D01556B566B0D010A0E575D000E585971
:1027400006E32FEC11F00D01576B586BDF2A0A0ED0
:10275000DF5C03E399EC0FF0DF6AE2D7040EE15C83
:1027600002E2E16AE552E16EE552E7CFD9FF1200DD
:10277000200EF66E000EF76E000EF86E0D010900C9
:10278000F550786F0900F550796F03E1786701D053
:102790003DD00900F550736F0900F550746F0900C2
:1027A000F550756F09000900F550E96E0900F55004
:1027B000EA6E090009000900F550766F0900F5502E
:1027C000776F09000900F6CF7AFDF7CF7BFDF8CFD0
:1027D0007CFD73CDF6FF74CDF7FF75CDF8FF0D01CD
:1027E000765302E1775307E00900F550EE6E760765
:1027F000F8E27707F9D77ACDF6FF7BCDF7FF7CCDEE
:0E280000F8FF0D017807000E795BBFD71200BC
:02280E00D9CF20
:10281000E6FFDACFE6FFE1CFD9FFE2CFDAFFE652FB
:10282000DF6AFD0EDBCF15F015C014F0030E151492
:10283000AA6EFF0EE76EFC0EDBCF14F0E750141605
:10284000156A1450A96EFB0EDB50A86EA69EA69CBE
:10285000A684F250800B01E0010EDF6EF29E550E51
:10286000A76EAA0EA76EA682A6B2FED7DF50E8B06A
:10287000F28EE8A0F29EA694E552E552E5CFDAFF8B
:06288000E7CFD9FF1200B2
:0A288600D9CFE6FFDACFE6FFE1CF7D
:10289000D9FFE2CFDAFFFC0EDBCF14F0FD0EDBCF69
:1028A00015F015C014F0156A030E1414AA6EFF0E6D
:1028B000E76EFC0EDBCF14F0FD0EDBCF15F0E7501A
:1028C0001416156A1450A96EA69CA69EA680000038
:1028D0000000A85000D0E552E5CFDAFFE7CFD9FFDE
:0228E0001200E4
:0E28E200446563004E6F76004F6374005365CB
:1028F0007000417567004A756C004A756E004D6145
:102900007900417072004D617200466562004A6153
:102910006E00536174004672690054687500576513
:0E2920006400547565004D6F6E0053756E00B7
:02292E00056A38
:10293000046A036A026A200EE76ED89006360736EC
:102940000836093602360336043605360B50025C6B
:102950000C5003580D5004580E50055809E30B5005
:10296000025E0C50035A0D50045A0E50055A062AA6
:06297000E72EE4D712007F
:0A297600C26A0F01386B396B3A6B2F
:102980003B6B3C6B700ED3129490949C948E956A22
:1029900092909292929492969298929A9692938012
:1029A0009382938493869388938C938C938E969042
:0429B000F19E120082
:0C29B40008C012F008500D02F4CF07F02C
:1029C000F3CF06F009500E02F4CF09F0F3CF08F070
:1029D0000D02F3500726F4500822E86A092212502B
:1029E0000E02F3500726F4500822E86A0922000C70
:1029F000D9CFE6FFDACFE6FFE1CFD9FFE2CFDAFFAA
:102A0000E652E652FC0EDBCFDEFFDBCFDDFF010E30
:102A1000DB50CF6EDF50CE6EE552E552E552E5CF8A
:082A2000DAFFE7CFD9FF120035
:082A2800D9CFE6FFDACFE6FF8B
:102A3000E1CFD9FFE2CFDAFFE652E652FC0EDBCF60
:102A4000DEFFDBCFDDFF010EDB50D76EDF50D66E31
:102A5000E552E552E552E5CFDAFFE7CFD9FF1200A4
:102A6000D9CFE6FFDACFE6FFE1CFD9FFE2CFDAFF39
:102A7000FD0EDB507F0BD56ED76AD66AF294FD0E41
:102A8000DBAE02D0F28A01D0F29AD58EE552E5CFC4
:082A9000DAFFE7CFD9FF1200C5
:082A9800056A046A100EE76EE6
:102AA000D89008360936043605360D50045C0E50B1
:102AB000055805E30D50045E0E50055A082AE72E0E
:042AC000F0D7120039
:0C2AC400FF0EE3501C6E480E01D04C0EBB
:102AD000E76EE72EFED7E76AE72EFED71C2EF7D764
:042AE00000001200E0
:0C2AE400380EF36E00EE00F00F0E01D86B
:102AF0001200EA6002D0EE6AFCD7F350E9601200DF
:042B0000EE6AFCD7A6
:0C2B040010EE60F020EE60F0F86A019C1A
:102B1000B8EC13F003EC00F060EC13F0FBD71200FC
:102B2000056A080EE76ED890093605360E50055C2A
:0C2B300002E3056E092AE72EF7D7120019
:042B3C000D01856B97
:102B400012000D01850503E1856B849003D0010E11
:062B5000856F8480120075
:0A2B5600FF0EE350E84E12000000ED
:0C2B600000D000D000D0E82EFAD7120000
:042B6C00A6B2FED738
:022B7000120051
:0E2B7200000000000000000000000000000055
:082B800000000000000000004D
:082B8800000000000000000045
:102B90000000000000000000000000000000000035
:102BA0000000000000000000000000000000000025
:0B2BB00000000000000000000000001A
:052BBB00000000000015
:0D2BC0000000000000000000000000000008
:032BCD00002A29B2
:102BD000262922291E291A29162912290E290A29ED
:102BE00006290229FE28FA28F628F228EE28EA28E3
:052BF000E628E22800C8
:0B2BF5004944454F4E4943530033361E
:022C0000323769
:012C020000D1
:0B2C03003F065B4F666D7D077F6F0092
:022C0E000000C4
:052C10000001010114A8
:020000040030CA
:0100010008F6
:0100020001FC
:0100030024D8
:01000500BD3D
:010006008079
:010008000FE8
:01000900C036
:01000A000FE6
:01000B00E014
:01000C000FE4
:01000D0040B2
:00000001FF
