:020000040000FA
:060000000FEF16F01200E4
:020006001200E6
:08000800F2A402D0BBEF0FF0DF
:100010009EA202D081EF10F01200D08EF28E12005C
:1000200009000E2D00007D0D000007000000032DCB
:100030000000680D00000B000000022D0000850D7F
:10004000000001000000F52C00005B0D00000D0019
:100050000000CD2C0000000F000028000000BB2C89
:100060000000490D000012000000A02C0000000D4F
:1000700000001B000000882C00001B0D0000180071
:0E0080000000722C0000330D0000160000007E
:02008E00D9CFC8
:10009000E6FFE1CFD9FFE652FD0EDBCF16F0FE0EF4
:1000A000DBCF17F017C016F0176A640E1702F3CFF4
:1000B00017F0640E1602F3CF16F0F4501726FD0E5B
:1000C000DBCF18F0FE0EDBCF19F0040ED8901932FA
:1000D0001832E804FBE10A0E1902F3CF19F00A0EF8
:1000E0001802F3CF18F0F450192616501810146E99
:1000F00017501910156E0F0EE76EFD0EDBCF1AF0BC
:10010000FE0EDBCF1BF0E7501A161B6A14501A10B4
:10011000DF6EDF5000D0E552E552E7CFD9FF120085
:10012000D9CFE6FFE1CFD9FFE652FE0EDB50F00B50
:10013000E8380F0B0A0DF350DF6EFE0EDB500F0B8D
:10014000DF26DF5000D0E552E552E7CFD9FF12009D
:10015000D9CFE6FFE1CFD9FF020EE1260A0E146ED9
:1001600014C00EF0FE0EDBCF09F01DEC16F00950A6
:10017000DF6E0A0E146E14C00EF0FE0EDBCF09F017
:100180001DEC16F0010E05C0DBFF010EDB500F0B5E
:10019000146E0F0EDF14100DF350141000D0146EF7
:1001A000020EE15C02E2E16AE552E16E1450E552B2
:1001B000E7CFD9FF1200D9CFE6FFE1CFD9FF0E0E6E
:1001C000E126FD0EDBCF14F0FE0EDBCF15F00A0E9C
:1001D0000D6E0E6A14C008F015C009F0CAEC15F0D7
:1001E00004C014F005C015F00A0E14C0DBFF0B0E9E
:1001F00015C0DBFF0C0EDB6A0D0EDB6A0A0EDB504E
:10020000E76E040EE7CFDBFFFD0EDBCF14F0FE0E32
:10021000DBCF15F00A0E0D6E0E6A14C008F015C083
:1002200009F0CAEC15F008C014F009C015F0060E6C
:1002300014C0DBFF070E15C0DBFF080EDB6A090EDA
:10024000DB6A060EDBCF06F0070EDBCF07F0080EE9
:10025000DBCF08F0090EDBCF09F00A0E0B6E0C6A3B
:100260000D6A0E6A11EC15F00A0E02C0DBFF0B0ED0
:1002700003C0DBFF0C0E04C0DBFF0D0E05C0DBFF6F
:100280000A0EDB50E76E030EE7CFDBFF060EDBCF77
:1002900006F0070EDBCF07F0080EDBCF08F0090EE3
:1002A000DBCF09F00A0E0B6E0C6A0D6A0E6A11ECB8
:1002B00015F0060E06C0DBFF070E07C0DBFF080EB9
:1002C00008C0DBFF090E09C0DBFF060EDBCF06F01E
:1002D000070EDBCF07F0080EDBCF08F0090EDBCFEF
:1002E00009F00A0E0B6E0C6A0D6A0E6A11EC15F01D
:1002F0000A0E02C0DBFF0B0E03C0DBFF0C0E04C0B6
:10030000DBFF0D0E05C0DBFF0A0EDB50E76E020EB1
:10031000E7CFDBFF060EDBCF06F0070EDBCF07F0E3
:10032000080EDBCF08F0090EDBCF09F00A0E0B6ECA
:100330000C6A0D6A0E6A11EC15F0060E06C0DBFFA2
:10034000070E07C0DBFF080E08C0DBFF090E09C05F
:10035000DBFF060EDBCF06F0070EDBCF07F0080E43
:10036000DBCF08F0090EDBCF09F00A0E0B6E0C6A2A
:100370000D6A0E6A11EC15F00A0E02C0DBFF0B0EBF
:1003800003C0DBFF0C0E04C0DBFF0D0E05C0DBFF5E
:100390000A0EDB50E76E010EE7CFDBFF060EDBCF68
:1003A00006F0070EDBCF07F0080EDBCF08F0090ED2
:1003B000DBCF09F00A0E0B6E0C6A0D6A0E6A11ECA7
:1003C00015F0060E06C0DBFF070E07C0DBFF080EA8
:1003D00008C0DBFF090E09C0DBFF060EDB50DF6E35
:1003E000050EDB6A050EF36E050EDBCFF4FFF3504E
:1003F000F45C21E2D9CF14F0DACF15F0050EDB5012
:100400000F011424E96E000E1520EA6EEF50E66E1F
:10041000050EDB50E76EFB0EDBCFE9FFFC0EDBCFFA
:10042000EAFFE750E926000EEA22E552E750EF6EB8
:10043000050EDB2AD7D70E0EE15C02E2E16AE55237
:10044000E16EE552E7CFD9FF1200D9CFE6FFE1CF49
:10045000D9FF080EE1260A0E146E14C00EF0FE0E2F
:10046000DBCF09F01DEC16F00550E66ED950060FF3
:10047000E96EDACFEAFFE552E750EE6EED6A060E5E
:10048000DB50E76E020EE7CFDBFF0A0E146E14C0DE
:100490000EF0FE0EDBCF09F01DEC16F00950E66EF3
:1004A000D950040FE96EDACFEAFFE552E750EE6E5D
:1004B000ED6A040EDBCF14F0050EDBCF15F00A0E4B
:1004C0000D6E0E6A14C008F015C009F0CAEC15F0E4
:1004D00004C014F005C015F0060E14C0DBFF070EB3
:1004E00015C0DBFF060EDB50E76E010EE7CFDBFF2A
:1004F0000A0E146E156A040EDBCF08F0050EDBCF72
:1005000009F014C00DF015C00EF0CAEC15F0040E81
:1005100008C0DBFF050E09C0DBFF040EDB50DF6EF9
:10052000030EDB6A030EF36E030EDBCFF4FFF35012
:10053000F45C21E2D9CF14F0DACF15F0030EDB50D2
:100540000F011424E96E000E1520EA6EEF50E66EDE
:10055000030EDB50E76EFC0EDBCFE9FFFD0EDBCFB9
:10056000EAFFE750E926000EEA22E552E750EF6E77
:10057000030EDB2AD7D7080EE15C02E2E16AE552FE
:10058000E16EE552E7CFD9FF1200D9CFE6FFE1CF08
:10059000D9FF130EE126FB0EDBCF06F0FC0EDBCFFE
:1005A00007F0FD0EDBCF08F0FE0EDBCF09F00A0EE0
:1005B0000B6E0C6A0D6A0E6A11EC15F00F0E02C07C
:1005C000DBFF100E03C0DBFF110E04C0DBFF120EB9
:1005D00005C0DBFF0F0EDB50E76E090EE7CFDBFF38
:1005E000FB0EDBCF06F0FC0EDBCF07F0FD0EDBCF02
:1005F00008F0FE0EDBCF09F00A0E0B6E0C6A0D6AD6
:100600000E6A11EC15F00B0E06C0DBFF0C0E07C0D6
:10061000DBFF0D0E08C0DBFF0E0E09C0DBFF0B0E6B
:10062000DBCF06F00C0EDBCF07F00D0EDBCF08F0B2
:100630000E0EDBCF09F00A0E0B6E0C6A0D6A0E6A05
:1006400011EC15F00F0E02C0DBFF100E03C0DBFF34
:10065000110E04C0DBFF120E05C0DBFF0F0EDB50D6
:10066000E76E080EE7CFDBFF0B0EDBCF06F00C0EBC
:10067000DBCF07F00D0EDBCF08F00E0EDBCF09F05D
:100680000A0E0B6E0C6A0D6A0E6A11EC15F00B0E59
:1006900006C0DBFF0C0E07C0DBFF0D0E08C0DBFF42
:1006A0000E0E09C0DBFF0B0EDBCF06F00C0EDBCF0E
:1006B00007F00D0EDBCF08F00E0EDBCF09F00A0EAF
:1006C0000B6E0C6A0D6A0E6A11EC15F00F0E02C06B
:1006D000DBFF100E03C0DBFF110E04C0DBFF120EA8
:1006E00005C0DBFF0F0EDB50E76E070EE7CFDBFF29
:1006F0000B0EDBCF06F00C0EDBCF07F00D0EDBCFC1
:1007000008F00E0EDBCF09F00A0E0B6E0C6A0D6AB4
:100710000E6A11EC15F00B0E06C0DBFF0C0E07C0C5
:10072000DBFF0D0E08C0DBFF0E0E09C0DBFF0B0E5A
:10073000DBCF06F00C0EDBCF07F00D0EDBCF08F0A1
:100740000E0EDBCF09F00A0E0B6E0C6A0D6A0E6AF4
:1007500011EC15F00F0E02C0DBFF100E03C0DBFF23
:10076000110E04C0DBFF120E05C0DBFF0F0EDB50C5
:10077000E76E060EE7CFDBFF0B0EDBCF06F00C0EAD
:10078000DBCF07F00D0EDBCF08F00E0EDBCF09F04C
:100790000A0E0B6E0C6A0D6A0E6A11EC15F00B0E48
:1007A00006C0DBFF0C0E07C0DBFF0D0E08C0DBFF31
:1007B0000E0E09C0DBFF0B0EDBCF06F00C0EDBCFFD
:1007C00007F00D0EDBCF08F00E0EDBCF09F00A0E9E
:1007D0000B6E0C6A0D6A0E6A11EC15F00F0E02C05A
:1007E000DBFF100E03C0DBFF110E04C0DBFF120E97
:1007F00005C0DBFF0F0EDB50E76E050EE7CFDBFF1A
:100800000B0EDBCF06F00C0EDBCF07F00D0EDBCFAF
:1008100008F00E0EDBCF09F00A0E0B6E0C6A0D6AA3
:100820000E6A11EC15F00B0E06C0DBFF0C0E07C0B4
:10083000DBFF0D0E08C0DBFF0E0E09C0DBFF0B0E49
:10084000DBCF06F00C0EDBCF07F00D0EDBCF08F090
:100850000E0EDBCF09F00A0E0B6E0C6A0D6A0E6AE3
:1008600011EC15F00F0E02C0DBFF100E03C0DBFF12
:10087000110E04C0DBFF120E05C0DBFF0F0EDB50B4
:10088000E76E040EE7CFDBFF0B0EDBCF06F00C0E9E
:10089000DBCF07F00D0EDBCF08F00E0EDBCF09F03B
:1008A0000A0E0B6E0C6A0D6A0E6A11EC15F00B0E37
:1008B00006C0DBFF0C0E07C0DBFF0D0E08C0DBFF20
:1008C0000E0E09C0DBFF0B0EDBCF06F00C0EDBCFEC
:1008D00007F00D0EDBCF08F00E0EDBCF09F00A0E8D
:1008E0000B6E0C6A0D6A0E6A11EC15F00F0E02C049
:1008F000DBFF100E03C0DBFF110E04C0DBFF120E86
:1009000005C0DBFF0F0EDB50E76E030EE7CFDBFF0A
:100910000B0EDBCF06F00C0EDBCF07F00D0EDBCF9E
:1009200008F00E0EDBCF09F00A0E0B6E0C6A0D6A92
:100930000E6A11EC15F00B0E06C0DBFF0C0E07C0A3
:10094000DBFF0D0E08C0DBFF0E0E09C0DBFF0B0E38
:10095000DBCF06F00C0EDBCF07F00D0EDBCF08F07F
:100960000E0EDBCF09F00A0E0B6E0C6A0D6A0E6AD2
:1009700011EC15F00F0E02C0DBFF100E03C0DBFF01
:10098000110E04C0DBFF120E05C0DBFF0F0EDB50A3
:10099000E76E020EE7CFDBFF0B0EDBCF06F00C0E8F
:1009A000DBCF07F00D0EDBCF08F00E0EDBCF09F02A
:1009B0000A0E0B6E0C6A0D6A0E6A11EC15F00B0E26
:1009C00006C0DBFF0C0E07C0DBFF0D0E08C0DBFF0F
:1009D0000E0E09C0DBFF0B0EDBCF06F00C0EDBCFDB
:1009E00007F00D0EDBCF08F00E0EDBCF09F00A0E7C
:1009F0000B6E0C6A0D6A0E6A11EC15F00F0E02C038
:100A0000DBFF100E03C0DBFF110E04C0DBFF120E74
:100A100005C0DBFF0F0EDB50E76E010EE7CFDBFFFB
:100A20000B0EDBCF06F00C0EDBCF07F00D0EDBCF8D
:100A300008F00E0EDBCF09F00A0E0B6E0C6A0D6A81
:100A40000E6A11EC15F00B0E06C0DBFF0C0E07C092
:100A5000DBFF0D0E08C0DBFF0E0E09C0DBFF0B0E27
:100A6000DB50DF6E0A0EDB6A0A0EF36E0A0EDBCF76
:100A7000F4FFF350F45C22E2D9CF14F0DACF15F092
:100A80000A0EDB500F011424E96E000E1520EA6EE9
:100A9000EF503009E66E0A0EDB50E76EF90EDBCF41
:100AA000E9FFFA0EDBCFEAFFE750E926000EEA2263
:100AB000E552E750EF6E0A0EDB2AD6D7130EE15C43
:100AC00002E2E16AE552E16EE552E7CFD9FF12009A
:100AD000D9CFE6FFE1CFD9FFFE0EDB50F00BE83AAD
:100AE000060DFE0EDBCFE7FFF350E75EFE0EE7CF0D
:100AF000DBFFFE0EDB5000D0E552E7CFD9FF12003E
:100B0000D9CFE6FFE1CFD9FF0A0E146E14C00EF064
:100B1000FE0EDBCF09F01DEC16F00950060DFE0E9F
:100B2000DBCFE7FFF350E726FE0EE7CFDBFFFE0E3D
:100B3000DB50146E156A14C0F3FF15C0F4FF00D02B
:100B4000E552E7CFD9FF1200D9CFE6FFE1CFD9FFB9
:100B5000060EE126060EF36EFC0EDBCFF4FFF3501B
:100B6000F45C72E2020EDB6A030EDB6A040EDB6ADF
:100B7000050EDB6ADF6AFC0EDB50DF5C59E2FC0E1F
:100B8000DBCFE6FFDF28E552E75CE76E010EE7CF3B
:100B9000DBFF010EF36E040EF3CFDBFF050EDB6A05
:100BA000010EDB50000814E20A0E086E096A040EFA
:100BB000DBCF0DF0050EDBCF0EF058EC15F0040E78
:100BC00006C0DBFF050E07C0DBFF010EDB06E8D722
:100BD000020EDBCF16F0030EDBCF17F0DF50E76E0F
:100BE000FD0EDBCFE9FFFE0EDBCFEAFFE750E92683
:100BF000000EEA22EF500F0B186E196A040EDBCFBD
:100C000008F0050EDBCF09F018C00DF019C00EF08A
:100C100058EC15F016500624146E17500720156E68
:100C2000020E14C0DBFF030E15C0DBFFDF2AA3D7C3
:100C3000020EDBCF14F0030EDBCF15F014C0F3FF70
:100C400015C0F4FF04D003D0F36AF46A00D0060E96
:100C5000E15C02E2E16AE552E16EE552E7CFD9FFDD
:020C6000120080
:0E0C6200D9CFE6FFE1CFD9FFFE0EDB04E96E2D
:100C7000EA6AD890E936EA36010EE9260F0EEA2232
:100C8000EECF14F0EFCF15F014C0F3FF15C0F4FF52
:100C900000D0E552E7CFD9FF1200D9CFE6FFE1CF70
:100CA000D9FFFE0EDBCFE6FFE66A47EC00F0E55227
:100CB000E552FF0FE96EEA6AD890E936EA360F0E80
:100CC000E9260F0EEA22EECF14F0EFCF15F014C094
:100CD000F3FF15C0F4FF00D0E552E7CFD9FF1200B3
:100CE000D9CFE6FFE1CFD9FFC2EC12F0D00EE66E0D
:100CF00006EC13F0E552E66A06EC13F0E552C2EC9E
:100D000012F0D10EE66E06EC13F0E552010EE66E1F
:100D10004EEC13F0E552E66EFD0EDBCFE9FFFE0E62
:100D2000DBCFEAFFE552E750EF6E010EE66E4EECC8
:100D300013F0E552E66E010EE76EFD0EDBCFE9FF24
:100D4000FE0EDBCFEAFFE750E926000EEA22E5526D
:100D5000E750EF6E010EE66E4EEC13F0E552E66ED4
:100D6000020EE76EFD0EDBCFE9FFFE0EDBCFEAFFE2
:100D7000E750E926000EEA22E552E750EF6E010E39
:100D8000E66E4EEC13F0E552E66E030EE76EFD0ED6
:100D9000DBCFE9FFFE0EDBCFEAFFE750E926000ECE
:100DA000EA22E552E750EF6E010EE66E4EEC13F0CC
:100DB000E552E66E040EE76EFD0EDBCFE9FFFE0E98
:100DC000DBCFEAFFE750E926000EEA22E552E750C2
:100DD000EF6E010EE66E4EEC13F0E552E66E050E78
:100DE000E76EFD0EDBCFE9FFFE0EDBCFEAFFE7503B
:100DF000E926000EEA22E552E750EF6EE66A4EEC75
:100E000013F0E552E66E060EE76EFD0EDBCFE9FF4E
:100E1000FE0EDBCFEAFFE750E926000EEA22E5529C
:100E2000E750EF6ED8EC12F0E552E7CFD9FF120091
:100E3000D9CFE6FFE1CFD9FFC2EC12F0D00EE66EBB
:100E400006EC13F0E552E66A06EC13F0E552FD0EEF
:100E5000DBCFE9FFFE0EDBCFEAFFEF50E66E06ECDC
:100E600013F0E552010EE76EFD0EDBCFE9FFFE0E3B
:100E7000DBCFEAFFE750E926000EEA22EF50E66EEC
:100E800006EC13F0E552020EE76EFD0EDBCFE9FF34
:100E9000FE0EDBCFEAFFE750E926000EEA22EF5014
:100EA000E66E06EC13F0E552030EE76EFD0EDBCFA7
:100EB000E9FFFE0EDBCFEAFFE750E926000EEA224B
:100EC000EF50E66E06EC13F0E552040EE76EFD0EF1
:100ED000DBCFE9FFFE0EDBCFEAFFE750E926000E8D
:100EE000EA22EF50E66E06EC13F0E552050EE76ECF
:100EF000FD0EDBCFE9FFFE0EDBCFEAFFE750E92670
:100F0000000EEA22EF50E66E06EC13F0E552060EF4
:100F1000E76EFD0EDBCFE9FFFE0EDBCFEAFFE75009
:100F2000E926000EEA22EF50E66E06EC13F0E552D9
:100F3000D8EC12F0E552E7CFD9FF1200D9CFE6FF87
:100F4000E1CFD9FFFD0EDB041DE1FE0EDB504009B1
:100F5000E76EFE0EE7CFDBFFFC0EDB0408E1FE0EC2
:100F6000DB502009E76EFE0EE7CFDBFF0AD0FC0E58
:100F7000DB5007E1FE0EDB50DF0BE76EFE0EE7CF26
:100F8000DBFF0AD0FD0EDB5007E1FE0EDB50BF0B8E
:100F9000E76EFE0EE7CFDBFFFE0EDB5000D0E55222
:100FA000E7CFD9FF1200D9CFE6FFE1CFD9FFFD0E81
:100FB000DBCFE9FFFE0EDBCFEAFFEE52EF50E66E2D
:100FC000FB0EDBCFE9FFFC0EDBCFEAFFEE52E55272
:100FD000E750EF6EFD0EDBCFE9FFFE0EDBCFEAFF41
:100FE000EF50E66EFB0EDBCFE9FFFC0EDBCFEAFF36
:100FF000E552E750EF6EFD0EDBCFE9FFFE0EDBCFD3
:10100000EAFF020EE926000EEA22EFCF14F00C0EE2
:10101000145C42E3FD0EDBCFE9FFFE0EDBCFEAFFFF
:10102000020EE926000EEA22EF50F40FE66EFB0EE8
:10103000DBCFE9FFFC0EDBCFEAFF020EE926000E54
:10104000EA22E552E750EF6EFB0EDBCFE9FFFC0E24
:10105000DBCFEAFF070EE926000EEA22010EEF6E53
:101060000C0E146EFD0EDBCFE9FFFE0EDBCFEAFFA8
:10107000020EE926000EEA22EF50145C0CE1FB0E92
:10108000DBCFE9FFFC0EDBCFEAFF020EE926000E04
:10109000EA220C0EEF6E4BD0FD0EDBCFE9FFFE0E09
:1010A000DBCFEAFF020EE926000EEA22EFCF14F0B2
:1010B0000C0E145C3CE2FD0EDBCFE9FFFE0EDBCF35
:1010C000EAFF020EE926000EEA22EF50E66EFB0E62
:1010D000DBCFE9FFFC0EDBCFEAFF020EE926000EB4
:1010E000EA22E552E750EF6EFB0EDBCFE9FFFC0E84
:1010F000DBCFEAFF070EE926000EEA22EF6AFD0EBB
:10110000DBCFE9FFFE0EDBCFEAFF020EE926000E81
:10111000EA22EF500CE1FB0EDBCFE9FFFC0EDBCF48
:10112000EAFF020EE926000EEA220C0EEF6EE552EF
:10113000E7CFD9FF1200D9CFE6FFE1CFD9FFFD0EEF
:10114000DBCFE9FFFE0EDBCFEAFFEE52EF50E66E9B
:10115000FB0EDBCFE9FFFC0EDBCFEAFFEE52E552E0
:10116000E750EF6EFD0EDBCFE9FFFE0EDBCFEAFFAF
:10117000EF50E66EFB0EDBCFE9FFFC0EDBCFEAFFA4
:10118000E552E750EF6EFD0EDBCFE9FFFE0EDBCF41
:10119000EAFF070EE926000EEA22EF0436E1FD0E13
:1011A000DBCFE9FFFE0EDBCFEAFF020EE926000EE1
:1011B000EA22EF500C0FE66EFB0EDBCFE9FFFC0ED0
:1011C000DBCFEAFF020EE926000EEA22E552E750E5
:1011D000EF6E0C0E146EFD0EDBCFE9FFFE0EDBCFC3
:1011E000EAFF020EE926000EEA22EF50145C0CE141
:1011F000FB0EDBCFE9FFFC0EDBCFEAFF020EE92698
:10120000000EEA220C0EEF6E3FD0FD0EDBCFE9FFA1
:10121000FE0EDBCFEAFF070EE926000EEA22EF50B2
:1012200033E1FD0EDBCFE9FFFE0EDBCFEAFF020E5E
:10123000E926000EEA22EF50E66EFB0EDBCFE9FF57
:10124000FC0EDBCFEAFF020EE926000EEA22E55291
:10125000E750EF6E0C0E146EFD0EDBCFE9FFFE0EB5
:10126000DBCFEAFF020EE926000EEA22EF50145C03
:101270000BE1FB0EDBCFE9FFFC0EDBCFEAFF020E3A
:10128000E926000EEA22EF6AE552E7CFD9FF120005
:10129000D9CFE6FFE1CFD9FFE652DF6AFD0EDB04CE
:1012A0000DE1FE0EDB500C0FDF6E0C0E146EFE0E09
:1012B000DB50145C02E10C0EDF6E16D0FD0EDB502D
:1012C0000BE1FE0EDB50DF6E0C0E146EFE0EDB50DB
:1012D000145C01E1DF6A08D0AA0E146EFD0EDB502B
:1012E000145C02E1AA0EDF6EDF5000D0E552E55239
:1012F000E7CFD9FF1200D9CFE6FFE1CFD9FFC2EC8B
:1013000012F0D00EE66E06EC13F0E552E66A06EC3B
:1013100013F0E552050EE76EFD0EDBCFE9FFFE0E82
:10132000DBCFEAFFE750E926000EEA22EF500F0B71
:10133000146E040EE76EFD0EDBCFE9FFFE0EDBCF71
:10134000EAFFE750E926000EEA22EF500F0B100DDE
:10135000F3501410E66E06EC13F0E552030EE76E40
:10136000FD0EDBCFE9FFFE0EDBCFEAFFE750E926FB
:10137000000EEA22EF500F0B146E020EE76EFD0E08
:10138000DBCFE9FFFE0EDBCFEAFFE750E926000ED8
:10139000EA22EF500F0B100DF3501410E66E06EC1E
:1013A00013F0E552010EE76EFD0EDBCFE9FFFE0EF6
:1013B000DBCFEAFFE750E926000EEA22EF500F0BE1
:1013C000146EFD0EDBCFE9FFFE0EDBCFEAFFEF5020
:1013D0000F0B100DF3501410E66E06EC13F0E552EF
:1013E000D8EC12F0E552E7CFD9FF1200D9CFE6FFD3
:1013F000E1CFD9FFC2EC12F0D00EE66E06EC13F08E
:10140000E552040EE66E06EC13F0E552010EE76EAF
:10141000FD0EDBCFE9FFFE0EDBCFEAFFE750E9264A
:10142000000EEA22EF500F0B146EFD0EDBCFE9FF2A
:10143000FE0EDBCFEAFFEF500F0B100DF350141030
:10144000E66E06EC13F0E552030EE76EFD0EDBCF01
:10145000E9FFFE0EDBCFEAFFE750E926000EEA22A5
:10146000EF500F0B146E020EE76EFD0EDBCFE9FF9F
:10147000FE0EDBCFEAFFE750E926000EEA22EF502E
:101480000F0B100DF3501410E66E06EC13F0E5523E
:10149000050EE76EFD0EDBCFE9FFFE0EDBCFEAFFA8
:1014A000E750E926000EEA22EF500F0B146E040EEF
:1014B000E76EFD0EDBCFE9FFFE0EDBCFEAFFE75064
:1014C000E926000EEA22EF500F0B100DF350141016
:1014D000E66E06EC13F0E552D8EC12F0E552E7CFD9
:1014E000D9FF1200D9CFE6FFE1CFD9FFC2EC12F04D
:1014F000D00EE66E06EC13F0E552030EE66E06EC37
:1015000013F0E552FE0EDBCFE6FF06EC13F0E552DA
:10151000D8EC12F0E552E7CFD9FF1200D9CFE6FFA1
:10152000E1CFD9FFE652E66AD00EE66E9FEC13F0EB
:10153000E552E552DF6EDFAE0DD07F0EDF14DF6EB9
:10154000DFCFE6FFE66AD00EE66EC1EC13F0E5529F
:10155000E552E552E552E552E7CFD9FF12002F0ED2
:10156000E66E0F0EE66E70EC06F0E552E5520F01E6
:1015700027510F012F5D05E02FCF27FF0F01010E2F
:04158000006F1200E6
:0C158400D9CFE6FFE1CFD9FF050EE1262C
:10159000FE0EDB50080802E2000E68D0FE0EDBCF24
:1015A00011FDDF6A0D011151DF5C0AE2DF50EA6ACA
:1015B000090FE96E0D0EEA2272CDEFFFDF2AF2D796
:1015C0000D01010E176F0D0E186FDF6A0B0EDF5C39
:1015D00049E2010EDB6AFE0EDB50F36E010EDBCF3B
:1015E000F4FFF350F45C15E2DF50EA6A680FE96E2D
:1015F0000D0EEA22EF50E66E010EDB50EA6A010F93
:10160000E96E0D0EEA22E552E750EF6E010EDB2A7D
:10161000E2D7020EDB6A640EF36E020EDBCFF4FF3C
:10162000F350F45C1DE22ED8030EF36E030EF3CFDD
:10163000DBFF040EDB6A030EDBCF14F0DB06040EC7
:10164000DBCF15F001E2DB061450151006E0040EA6
:10165000E66EE0EC15F0E552EED7020EDB2ADBD7A2
:10166000DF2AB4D70D01126B010E00D0146E050EE7
:10167000E15C02E2E16AE552E16E1450E552E7CF27
:10168000D9FF12000D010051010A19E0010A01E021
:101690004ED00D0112510D01EA6A1725E96E18515D
:1016A000EA22EF50E66E59D9E5520D01122B0D01D9
:1016B00011510D01125D02E30D01126B39D00D01C4
:1016C00012510D01EA6A1725E96E1851EA22EF500E
:1016D000E66E43D9E5520D01122B0D0111510D019A
:1016E000125D02E30D01126B0D01132B000E14238A
:1016F0000D0115510D01135D0D0116510D01145908
:1017000015E30D01136B146B010E0D01171902E1A6
:101710000D0E181906E10D01090E176F0D0E186F49
:1017200005D00D01010E176F0D0E186F01D000D0FE
:101730001200D9CFE6FFE1CFD9FFE652DF6ADF6AB8
:101740000D011151DF5C16E2DF50E76EFD0EDBCFBD
:10175000E9FFFE0EDBCFEAFFE750E926000EEA22A2
:10176000EF50E66E5BD9E552000902E1000E43D06E
:10177000DF2AE6D7DF6A0D011151DF5C38E2DF5066
:10178000E76EFD0EDBCFE9FFFE0EDBCFEAFFE75091
:10179000E926000EEA22EF50200809E1DF50EA6A4C
:1017A000010FE96E0D0EEA2272CDEFFF1ED0DF5061
:1017B000E76EFD0EDBCFE9FFFE0EDBCFEAFFE75061
:1017C000E926000EEA22EF50D00FEA6A680FE96EB0
:1017D0000D0EEA22EF50E66EDF50EA6A010FE96E65
:1017E0000D0EEA22E552E750EF6EDF2AC4D70D0155
:1017F000126B010E00D0E552E552E7CFD9FF12007F
:10180000D9CFE6FFE1CFD9FFE652DF6ADF6A0D01EB
:101810001151DF5C19E2DF50E76EFD0EDBCFE9FF0F
:10182000FE0EDBCFEAFFE750E926000EEA22EF507A
:10183000E66EDF50EA6A010FE96E0D0EEA22E5520C
:10184000E750EF6EDF2AE3D70D01126BE552E55248
:10185000E7CFD9FF1200D9CFE6FFE1CFD9FFE6529B
:10186000DF6AFE0EDBCF14F00D011151D880145445
:1018700002E2000E2DD0FD0EDBCFE6FFCFD8E55201
:10188000000902E1000E24D0FD0EDB5020080AE121
:10189000FE0EDB50EA6A010FE96E0D0EEA2272CDF0
:1018A000EFFF14D0FD0EDB50D00FEA6A680FE96E2F
:1018B0000D0EEA22EF50E66EFE0EDB50EA6A010FD3
:1018C000E96E0D0EEA22E552E750EF6E010E00D0F0
:1018D000E552E552E7CFD9FF1200D9CFE6FFE1CFBD
:1018E000D9FFFD0EDBCF15FDFE0EDBCF16FD010E81
:1018F0000F0B0D0105E0D89016331533E806FBE118
:101900000D01136B146B0D01010E006FE552E7CF53
:10191000D9FF12000D01010E176F0D0E186F0D018A
:10192000006B1200D9CFE6FFE1CFD9FFE652DF6AA4
:101930000D011151DF5C0AE2DF50EA6A010FE96E26
:101940000D0EEA2272CDEFFFDF2AF2D70D01126BE6
:10195000E552E552E7CFD9FF1200D9CFE6FFE1CF3C
:10196000D9FF806A040EE66E2BEC16F0E552FE0EEF
:10197000DB50836E0D011251050A15E0010A11E0DA
:10198000070A0DE0010A09E0030A05E0010A01E087
:101990000CD080800BD0808209D0808407D08086D4
:1019A00005D0808803D0808A01D000D0E552E7CFEF
:1019B000D9FF1200D9CFE6FFE1CFD9FF020EE12611
:1019C000FE0EDB50DF6EFE0EDBCFE6FFFD0EDB50C2
:1019D000E552E724DF5C18E2DF50EA6A010FE96EA6
:1019E0000D0EEA22010EEFCFDBFF010EDB50800966
:1019F000E66EDF50EA6A010FE96E0D0EEA22E5524B
:101A0000E750EF6EDF2ADFD7020EE15C02E2E16A07
:101A1000E552E16EE552E7CFD9FF1200D9CFE6FFDC
:101A2000E1CFD9FFE652DF6AFE0EDB50200803E16A
:101A3000010EDF6E0ED0300EF36EFE0EDBCFF4FF24
:101A4000F350F45C06E3FE0EDB50390802E3010EAE
:101A5000DF6EDF5000D0E552E552E7CFD9FF12002C
:101A6000D9CFE6FFE1CFD9FFE652DF6ADF6A0D0189
:101A70001151DF5C16E2DF50E76EFD0EDBCFE9FFB0
:101A8000FE0EDBCFEAFFE750E926000EEA22EF5018
:101A9000E66EC4DFE552000902E1000E4AD0DF2AFB
:101AA000E6D7FC0EDB50DF6EFB0EDBCFE6FFFC0E55
:101AB000DB50E552E724DF5C38E2DF50E76EFD0ED5
:101AC000DBCFE9FFFE0EDBCFEAFFE750E926000E91
:101AD000EA22EF50200809E1DF50EA6A010FE96EBF
:101AE0000D0EEA2272CDEFFF1ED0DF50E76EFD0E25
:101AF000DBCFE9FFFE0EDBCFEAFFE750E926000E61
:101B0000EA22EF50D00FEA6A680FE96E0D0EEA2262
:101B1000EF50E66EDF50EA6A010FE96E0D0EEA2221
:101B2000E552E750EF6EDF2ABFD70D01126B010EB1
:101B300000D0E552E552E7CFD9FF1200D9CFE6FF3A
:101B4000E1CFD9FFE652FD0EDBCF15FDFE0EDBCF58
:101B500016FD010E0F0B0D0105E0D890163315335D
:101B6000E806FBE10D01136B146BFC0EDB500D015D
:101B7000196F1A6BDF6A0D011151DF5C1DE2DF5036
:101B8000146E156A0D011951141802E11A51151835
:101B900011E0DF50EA6A010FE96E0D0EEA22EF5004
:101BA000E66EDF50EA6A090FE96E0D0EEA22E55291
:101BB000E750EF6EDF2ADFD7090E0D011925E96E18
:101BC0000D0E0D011A21EA6EEF6A0D01010E006F74
:0A1BD000E552E552E7CFD9FF1200FD
:061BDA00D9CFE6FFE1CFC8
:101BE000D9FFE652200EE66EE66ABDEC14F0E5522F
:101BF000E5520D01336F36EC16F00D013351020A38
:101C00000EE0020A01E02DD0849297D9340EE66EE0
:101C10000D0EE66E99EC0BF0E552E55223D0DF6A2B
:101C2000070EDF5C15E2DF28E66EE66ABDEC14F015
:101C3000E552E552E66EDF50EA6A340FE96E0D0EAA
:101C4000EA22E552E750EF6E36EC16F0DF2AE8D7CD
:101C5000340EE66E0D0EE66E99EC0BF0E552E55291
:101C600001D000D0E552E552E7CFD9FF1200D9CF1D
:101C7000E6FFE1CFD9FF020EE1260D013351020A42
:101C800070E0030A24E0010A01E0ABD0020EE66E28
:101C9000C5EC11F0E552010819E14FD97D0EE66E51
:101CA0000D0EE66E18EC07F0E552E552010EE66EF9
:101CB000200EE66EE66A81EC14F0E552E552E5523C
:101CC00036EC16F00D01010E336F84828BD0030EBB
:101CD000E66EC5EC11F0E552010831E1010EDB6A58
:101CE000070EF36E010EDBCFF4FFF350F45C17E246
:101CF000010EDB50EA6A340FE96E0D0EEA22EF5056
:101D0000E66E010EDB28E66EE66A81EC14F0E55221
:101D1000E552E55236EC16F0010EDB2AE1D7020E51
:101D2000E66E200EE66EE66A81EC14F0E552E552AE
:101D3000E55236EC16F00D01020E336F53D03B0E18
:101D4000E66E0D0EE66E70EC06F0E552E55254D8E4
:101D5000340EE66E0D0EE66E99EC0BF0E552E55290
:101D600041D0020EE66EC5EC11F0E552010819E112
:101D7000E4D87D0EE66E0D0EE66E18EC07F0E55227
:101D8000E552010EE66E200EE66EE66A81EC14F076
:101D9000E552E552E55236EC16F00D01010E336FB7
:101DA00021D0040EE66EC5EC11F0E552010818E1F1
:101DB000C4D8340EE66E0D0EE66E99EC0BF0E552CB
:101DC000E552E66A200EE66EE66A81EC14F0E55212
:101DD000E552E55236EC16F00D01336B849202D0D9
:101DE00001D000D0020EE15C02E2E16AE552E16E50
:101DF000E552E7CFD9FF1200D9CFE6FFE1CFD9FFF7
:101E0000040EE126DF6A0D013E05DF6E180EDF02CB
:101E1000F3CFDFFFF00E0D013D15E8380F0B0A0D73
:101E2000010EF3CFDBFF0F0E0D013D15146E010EF9
:101E3000DBCFE7FF1450E726010EE7CFDBFF010EF3
:101E4000DB50DF26DFCFE6FFA8EC00F0E552E76EBF
:101E5000020EE7CFDBFF990EDF5C38E1590E0D0172
:101E60003C5D34E1590E0D013B5D30E1030EDB6A50
:101E7000070EF36E030EDBCFF4FFF350F45C17E2B2
:101E8000030EDB50EA6A340FE96E0D0EEA22EF50C2
:101E9000E66E030EDB28E66EE66A81EC14F0E5528E
:101EA000E552E55236EC16F0030EDB2AE1D7020EBE
:101EB000E66E200EE66EE66A81EC14F0E552E5521D
:101EC000E55236EC16F00D01020E336F0F0E0D01C8
:101ED0003B15300F0D01346FF00E0D013B15E83846
:101EE0000F0B300F0D01356F0F0E0D013C15300F2C
:101EF0000D01366FF00E0D013C15E8380F0B300F59
:101F00000D01376F020EDB500F0B300F0D01386FD4
:101F1000020EDB50F00BE8380F0B300F0D01396F5C
:101F20000D01200E3A6F040EE15C02E2E16AE55217
:101F3000E16EE552E7CFD9FF1200D9CFE6FFE1CF3E
:101F4000D9FF020EE126DF6A070EDF5C0AE2DF50EE
:101F5000EA6A340FE96E0D0EEA22200EEF6EDF2AD8
:101F6000F3D7020EE15C02E2E16AE552E16EE5526E
:061F7000E7CFD9FF1200CB
:0A1F7600DACFE4FFE2CFDAFFE9CF93
:101F8000E4FFEACFE4FFF6CFE4FFF7CFE4FFF5CFBD
:101F9000E4FFF3CFE4FFF4CFE4FFFACFE4FF00EE79
:101FA00000F0140EE80403E3EECFE4FFFBD700EEED
:101FB00014F0080EE80403E3EECFE4FFFBD7E6528B
:101FC000F2940D01552B000E56230D01572B000ED8
:101FD00058230D01592B000E5A230D014B514C1162
:101FE00007E005D04CCDFAFF0D014B51F96EFADF39
:101FF00049CDE6FF4ACDE6FF92EC15F0E552E552F9
:10200000E55200EE1BF0080EE80403E3E5CFEDFF18
:10201000FBD700EE13F0140EE80403E3E5CFEDFF69
:10202000FBD7E5CFFAFFE5CFF4FFE5CFF3FFE5CF30
:10203000F5FFE5CFF7FFE5CFF6FFE5CFEAFFE5CF08
:10204000E9FFE5CFDAFF1100DACFE4FFE2CFDAFFF4
:10205000E9CFE4FFEACFE4FFF6CFE4FFF7CFE4FFF8
:10206000F5CFE4FFF3CFE4FFF4CFE4FFFACFE4FFD2
:1020700000EE00F0140EE80403E3EECFE4FFFBD71C
:1020800000EE14F0080EE80403E3EECFE4FFFBD704
:10209000E6529E904DCDE6FF4ECDE6FF76EC15F074
:1020A000E552E5520D014F51501107E005D050CDDA
:1020B000FAFF0D014F51F96EFADFE55200EE1BF009
:1020C000080EE80403E3E5CFEDFFFBD700EE13F0C5
:1020D000140EE80403E3E5CFEDFFFBD7E5CFFAFFED
:1020E000E5CFF4FFE5CFF3FFE5CFF5FFE5CFF7FF51
:1020F000E5CFF6FFE5CFEAFFE5CFE9FFE5CFDAFF71
:102100001100DACFE4FFE2CFDAFFE9CFE4FFEACF54
:10211000E4FFF6CFE4FFF7CFE4FFF5CFE4FFF3CF22
:10212000E4FFF4CFE4FFFACFE4FF00EE00F0140E7A
:10213000E80403E3EECFE4FFFBD700EE14F0080E53
:10214000E80403E3EECFE4FFFBD7E6529E9251CDC5
:10215000BBFF0D015351541107E005D054CDFAFFD8
:102160000D015351F96EFADFE55200EE1BF0080E37
:10217000E80403E3E5CFEDFFFBD700EE13F0140E08
:10218000E80403E3E5CFEDFFFBD7E5CFFAFFE5CFAA
:10219000F4FFE5CFF3FFE5CFF5FFE5CFF7FFE5CFA0
:1021A000F6FFE5CFEAFFE5CFE9FFE5CFDAFF110063
:1021B000D9CFE6FFE1CFD9FF9F0EE66EAEEC15F06A
:1021C000E552FD0EDBCF49FDFE0EDBCF4AFDFB0ED7
:1021D000DBCF4BFDFC0EDBCF4CFDFD0EDBCFE6FF76
:1021E000FE0EDBCFE6FF92EC15F0E552E552E5522C
:1021F000E7CFD9FF1200D9CFE6FFE1CFD9FF020E1A
:10220000E126830EDF6EDE520C0EDD6ECC6ACC9EB4
:10221000070ECD6EFD0EDBCFE6FFFE0EDBCFE6FF39
:1022200076EC15F0E552E5529F809D80FD0EDBCFE8
:102230004DFDFE0EDBCF4EFDFB0EDBCF4FFDFC0E4A
:10224000DBCF50FD020EE15C02E2E16AE552E16E95
:10225000E552E7CFD9FF1200D9CFE6FFE1CFD9FF92
:102260000F0EBA6E9F829D82FE0EDB50BB6EFE0E7D
:10227000DB500D01516F526BFC0EDBCF53FDFD0E99
:0C228000DBCF54FDE552E7CFD9FF120080
:04228C00D9CFE6FFC1
:10229000E1CFD9FFE6528DD8DF6A080EDF5C09E294
:1022A000DF50EA6A1B0FE96E0D0EEA22EF6ADF2AA1
:1022B000F4D7E552E552E7CFD9FF1200D9CFE6FFB8
:1022C000E1CFD9FF9BD8FC0EDBCFE6FFFD0EDBCFC5
:1022D000E6FFFE0EDBCFE6FFC0D8E552E552E55241
:1022E000E552E7CFD9FF1200D9CFE6FFE1CFD9FF02
:1022F000E652FC0EDB50DF6EFB0EDB50D880DF5465
:102300001AE37CD8DFCFE6FF176ADF34FE0B1736FF
:10231000166EFD0EDB501624146EFE0EDB501720D9
:10232000156E14C0E6FF15C0E6FF97D8E552E552DA
:10233000E552DF2AE1D7E552E552E7CFD9FF120097
:10234000D9CFE6FFE1CFD9FFE652DF6A57D8DF6A7F
:10235000080EDF5C15E2DFCFE6FF156ADF34FE0B07
:102360001536146E230E14260D0E152214C0E6FF2A
:1023700015C0E6FF72D8E552E552E552DF2AE8D7EC
:10238000E552E552E7CFD9FF1200D9CFE6FFE1CF02
:10239000D9FFFE0EEA6ADB34FE0BEA36E96E230E45
:1023A000E9260D0EEA22EF5000D0E552E7CFD9FF23
:1023B0001200D9CFE6FFE1CFD9FFE652DF6A080E5F
:1023C000DF5C17E2EA6ADF34FE0BEA36E96E230EC1
:1023D000E9260D0EEA22EF6AEA6ADF34FE0BEA36DE
:1023E000E96E230EE9260D0EEA22EE52EF6ADF2A8D
:1023F000E6D7E552E552E7CFD9FF12008150010B35
:102400000D011B6F8150020B01E0010E0D011C6FCD
:102410008150040B01E0010E0D011D6F8150080B6E
:1024200001E0010E0D011E6F8150100B01E0010E45
:102430000D011F6F8150200B01E0010E0D01206F77
:102440008150400B01E0010E0D01216F8150800B86
:1024500001E0010E0D01226F1200D9CFE6FFE1CF9E
:10246000D9FFFD0EDBCFE9FFFE0EDBCFEAFFEF5019
:10247000010A3DE0010A01E074D0FC0EDB50EA6A7B
:102480001B0FE96E0D0EEA22EF50010B27E1FD0E46
:10249000DBCFE9FFFE0EDBCFEAFFEE52EF2AFD0EA7
:1024A000DBCFE9FFFE0EDBCFEAFFEECF14F0EFCF7C
:1024B00015F0020E0001155C10E3FD0EDBCFE9FF05
:1024C000FE0EDBCFEAFF010EEF6EFD0EDBCFE9FF64
:1024D000FE0EDBCFEAFFEE52EF6A08D0FD0EDBCF37
:1024E000E9FFFE0EDBCFEAFFEE52EF6A3BD0FC0EB7
:1024F000DB50EA6A1B0FE96E0D0EEA22EF50010B6A
:10250000010826E1FD0EDBCFE9FFFE0EDBCFEAFF7F
:10251000EE52EF2AFD0EDBCFE9FFFE0EDBCFEAFF26
:10252000EECF14F0EFCF15F0020E0001155C0FE3B3
:10253000FD0EDBCFE9FFFE0EDBCFEAFFEF6AFD0EFB
:10254000DBCFE9FFFE0EDBCFEAFFEE52EF6A08D0E9
:10255000FD0EDBCFE9FFFE0EDBCFEAFFEE52EF6AA6
:0C25600001D000D0E552E7CFD9FF1200F7
:04256C00C76AC78EE5
:10257000590EC86E280EC66EC56A9E96A1969486A0
:10258000948812009692969484848482050EE66E56
:102590002BEC16F0E5528494050EE66E2BEC16F04B
:1025A000E5528492050EE66E2BEC16F0E552120011
:1025B000969296948494050EE66E2BEC16F0E552F6
:1025C0008482050EE66E2BEC16F0E5528484120030
:1025D000D9CFE6FFE1CFD9FFE65296929684DF6A23
:1025E000DF500A080EE3050EE66E2BEC16F0E552FE
:1025F0008482050EE66E2BEC16F0E5528492DF2AFB
:10260000EFD7E552E552E7CFD9FF1200D9CFE6FF69
:10261000E1CFD9FFE65296929694DF6A080EDF5C0E
:1026200026E2FE0EDB50800B02E0010E01D0000E10
:10263000E8B08484E8A08494030EE66E2BEC16F0D8
:10264000E5528482060EE66E2BEC16F0E55284927B
:10265000020EE66E2BEC16F0E552FE0EDBCFF3FF1A
:10266000F39EF346FE0EF3CFDBFFDF2AD7D7968427
:10267000020EE66E2BEC16F0E5528482060EE66E34
:102680002BEC16F0E5528492060EE66E2BEC16F05B
:10269000E552E552E552E7CFD9FF1200D9CFE6FF68
:1026A000E1CFD9FF020EE126DF6A969296949684D6
:1026B000010EDB6A080EF36E010EDBCFF4FFF35060
:1026C000F45C17E28482060EE66E2BEC16F0E552FF
:1026D000DF9EDF468450040B01E0010EDF10DF6E49
:1026E0008492060EE66E2BEC16F0E552010EDB2A04
:1026F000E1D79694FE0EDB0402E1849401D0848439
:10270000020EE66E2BEC16F0E5528482060EE66EA3
:102710002BEC16F0E5528492060EE66E2BEC16F0CA
:10272000E552DF5000D0146E020EE15C02E2E16A75
:10273000E552E16E1450E552E7CFD9FF1200D9CF30
:10274000E6FFE1CFD9FFE6521DDFFE0EDBCFE6FF4D
:102750005DDFE552FD0EDBCFE6FF58DFE55212DF0D
:10276000FE0EDB28E66E52DFE552E66A97DFE552A1
:10277000DF6E1EDFDF5000D0E552E552E7CFD9FF14
:102780001200D9CFE6FFE1CFD9FFFCDEFE0EDBCF92
:10279000E6FF3CDFE552FD0EDBCFE6FF37DFE5521B
:1027A000FC0EDBCFE6FF32DFE55202DFE552E7CF7A
:0427B000D9FF12003B
:0C27B400D9CFE6FFE1CFD9FF040EE126EB
:1027C000DF6A030EDB6A35EC15F0B6EC12F08EEC26
:1027D0000AF0070EE66EC2EC0AF0E552000EE66E55
:1027E000E66A5F0EE66EF00EE66ED8EC10F0E5528B
:1027F000E552E552E552840EE66E160EE66E1E0EAA
:10280000E66E2CEC11F0E552E552E552EDEC0DF0E0
:102810000DEC00F00D01F40E555D010E565905E367
:1028200003EC16F00D01556B566B0D010A0E575D4A
:10283000000E585906E3A0EC11F00D01576B586BD0
:10284000DF2A0A0EDF5C03E337EC0EF0DF6AE2D723
:10285000040EE15C02E2E16AE552E16EE552E7CF87
:04286000D9FF12008A
:0C286400200EF66E000EF76E000EF86EEF
:102870000D010900F550786F0900F550796F03E1FB
:10288000786701D03DD00900F550736F0900F5500D
:10289000746F0900F550756F09000900F550E96E75
:1028A0000900F550EA6E090009000900F550766F3D
:1028B0000900F550776F09000900F6CF7AFDF7CFD0
:1028C0007BFDF8CF7CFD73CDF6FF74CDF7FF75CDA2
:1028D000F8FF0D01765302E1775307E00900F55048
:1028E000EE6E7607F8E27707F9D77ACDF6FF7BCD63
:1028F000F7FF7CCDF8FF0D017807000E795BBFD79D
:022900001200C3
:0E290200D9CFE6FFDACFE6FFE1CFD9FFE2CF73
:10291000DAFFE652DF6AFD0EDBCF15F015C014F0CA
:10292000030E1514AA6EFF0EE76EFC0EDBCF14F03B
:10293000E7501416156A1450A96EFB0EDB50A86EF2
:10294000A69EA69CA684F250800B01E0010EDF6ECD
:10295000F29E550EA76EAA0EA76EA682A6B2FED74D
:10296000DF50E8B0F28EE8A0F29EA694E552E55260
:0A297000E5CFDAFFE7CFD9FF120030
:06297A00D9CFE6FFDACF21
:10298000E6FFE1CFD9FFE2CFDAFFFC0EDBCF14F098
:10299000FD0EDBCF15F015C014F0156A030E1414EC
:1029A000AA6EFF0EE76EFC0EDBCF14F0FD0EDBCF40
:1029B00015F0E7501416156A1450A96EA69CA69E31
:1029C000A68000000000A85000D0E552E5CFDAFF55
:0629D000E7CFD9FF120061
:0A29D600446563004E6F76004F6306
:1029E000740053657000417567004A756C004A7544
:1029F0006E004D617900417072004D617200466554
:102A000062004A616E005361740046726900546846
:102A1000750057656400547565004D6F6E00537501
:022A20006E0046
:0E2A2200056A046A036A026A200EE76ED89005
:102A300006360736083609360236033604360536BA
:102A40000B50025C0C5003580D5004580E500558A2
:102A500009E30B50025E0C50035A0D50045A0E50FD
:0A2A6000055A062AE72EE4D71200FB
:062A6A00C26A0F01386B87
:102A70000F01396B0F013A6B0F013B6B0F013C6B80
:102A8000700ED3129490949C948E956A9290929228
:102A9000929492969298929A96929380938293842B
:102AA00093869388938C938C938E9690F19E1200CC
:102AB00008C012F008500D02F4CF07F0F3CF06F073
:102AC00009500E02F4CF09F0F3CF08F00D02F350D5
:102AD0000726F4500822E86A092212500E02F35029
:0C2AE0000726F4500822E86A0922000CC6
:042AEC00D9CFE6FF59
:102AF000DACFE6FFE1CFD9FFE2CFDAFFE652E652C6
:102B0000FC0EDBCFDEFFDBCFDDFF010EDB50CF6E37
:102B1000DF50CE6EE552E552E552E5CFDAFFE7CF62
:042B2000D9FF1200C7
:0C2B2400D9CFE6FFDACFE6FFE1CFD9FF02
:102B3000E2CFDAFFE652E652FC0EDBCFDEFFDBCF60
:102B4000DDFF010EDB50D76EDF50D66EE552E55249
:0C2B5000E552E5CFDAFFE7CFD9FF120015
:042B5C00D9CFE6FFE8
:102B6000DACFE6FFE1CFD9FFE2CFDAFFFD0EDB508F
:102B70007F0BD56ED76AD66AF294FD0EDBAE02D01B
:102B8000F28A01D0F29AD58EE552E5CFDAFFE7CF8F
:042B9000D9FF120057
:0C2B9400056A046A100EE76ED89008363F
:102BA0000936043605360D50045C0E50055805E311
:102BB0000D50045E0E50055A082AE72EF0D7120079
:102BC000FF0EE3501C6E480E01D04C0EE76EE72E50
:102BD000FED7E76AE72EFED71C2EF7D700001200BB
:102BE000380EF36E00EE00F00F0E01D81200EA600E
:102BF00002D0EE6AFCD7F350E9601200EE6AFCD70F
:102C00000D01856B12000D01850504E10D01856B39
:0E2C1000849004D00D01010E856F84801200A7
:022C1E0010EEB6
:102C200060F020EE60F0F86A019C32EC14F003ECE6
:0A2C300000F0DAEC13F0FBD71200FD
:062C3A00056A080EE76EBA
:102C4000D890093605360E50055C02E3056E092A58
:062C5000E72EF7D7120089
:0A2C5600FF0EE350E84E12000000EC
:0C2C600000D000D000D0E82EFAD71200FF
:042C6C00A6B2FED737
:022C7000120050
:0E2C7200000000000000000000000000000054
:082C800000000000000000004C
:082C8800000000000000000044
:102C90000000000000000000000000000000000034
:102CA0000000000000000000000000000000000024
:0B2CB000000000000000000000000019
:052CBB00000000000014
:0D2CC0000000000000000000000000000007
:032CCD00001E2ABC
:102CD0001A2A162A122A0E2A0A2A062A022AFE2945
:102CE000FA29F629F229EE29EA29E629E229DE293C
:052CF000DA29D62900DD
:0B2CF5004944454F4E4943530033361D
:022D0000323768
:012D020000D0
:0B2D03003F065B4F666D7D077F6F0091
:022D0E000000C3
:052D10000001010114A7
:020000040030CA
:0100010008F6
:0100020001FC
:0100030024D8
:01000500BD3D
:010006008079
:010008000FE8
:01000900C036
:01000A000FE6
:01000B00E014
:01000C000FE4
:01000D0040B2
:00000001FF
